{
  "contractName": "AnonymousVoteSelling",
  "abi": [
    {
      "inputs": [
        {
          "name": "_anonymousVoting",
          "type": "address"
        },
        {
          "name": "_onchainVerification",
          "type": "bool"
        }
      ],
      "payable": false,
      "stateMutability": "nonpayable",
      "type": "constructor"
    },
    {
      "constant": false,
      "inputs": [],
      "name": "submitProof",
      "outputs": [],
      "payable": false,
      "stateMutability": "nonpayable",
      "type": "function"
    }
  ],
  "bytecode": "0x6060604052341561000f57600080fd5b60405160408061012283398101604052808051906020019091908051906020019091905050816000806101000a81548173ffffffffffffffffffffffffffffffffffffffff021916908373ffffffffffffffffffffffffffffffffffffffff16021790555080600060146101000a81548160ff021916908315150217905550505060848061009e6000396000f300606060405260043610603f576000357c0100000000000000000000000000000000000000000000000000000000900463ffffffff168063c201be23146044575b600080fd5b3415604e57600080fd5b60546056565b005b5600a165627a7a7230582022c58f63108047680b2736ca11cc5dc975eef20429c27b3df08d9685f4c5383b0029",
  "source": "pragma solidity ^0.4.18;\r\n\r\nimport \"./AnonymousVoting.sol\";\r\n\r\ncontract AnonymousVoteSelling {\r\n    AnonymousVoting anonymousVoting;\r\n    bool onchainVerification;\r\n\r\n    struct Voter {\r\n        address addr;\r\n        uint[2] registeredkey;\r\n        uint[2] reconstructedkey;\r\n        bytes32 commitment;\r\n        uint[2] vote;\r\n    }\r\n\r\n    function AnonymousVoteSelling (address _anonymousVoting, bool _onchainVerification) {\r\n        anonymousVoting = AnonymousVoting(_anonymousVoting);\r\n        /* require(anonymousVoting.state() == 4); */\r\n        onchainVerification = _onchainVerification;\r\n    }\r\n\r\n    function submitProof () {\r\n        /* if (onchainVerification) {\r\n\r\n        } else {\r\n\r\n        } */\r\n    }\r\n\r\n    /* function verifyProof (uint[] params, uint[2] y, uint[] a, uint[] b) {\r\n        require(params.length % 2 == 0 && params.length == a.length && params.length == b.length);\r\n        uint[2] memory temp1;\r\n        uint[3] memory temp2;\r\n        uint[3] memory temp3;\r\n\r\n      // Voter Index\r\n      uint i = addressid[msg.sender];\r\n\r\n      // We already have them stored...\r\n      // TODO: Decide if this should be in SubmitVote or here...\r\n      uint[2] memory yG = voters[i].reconstructedkey;\r\n      uint[2] memory xG = voters[i].registeredkey;\r\n\r\n      // Make sure we are only dealing with valid public keys!\r\n      if(!Secp256k1.isPubKey(xG) || !Secp256k1.isPubKey(yG) || !Secp256k1.isPubKey(y)) {\r\n         return false;\r\n      }\r\n      //|| !Secp256k1.isPubKey(a1) || !Secp256k1.isPubKey(b1) || !Secp256k1.isPubKey(a2) || !Secp256k1.isPubKey(b2)\r\n\r\n      // Does c =? d1 + d2 (mod n)\r\n      if(uint(sha256(msg.sender, xG, y, a1, b1, a2, b2)) != addmod(params[0],params[1],nn)) {\r\n        return false;\r\n      }\r\n\r\n      // a1 =? g^{r1} * x^{d1}\r\n      temp2 = Secp256k1._mul(params[2], G);\r\n      temp3 = Secp256k1._add(temp2, Secp256k1._mul(params[0], xG));\r\n      ECCMath.toZ1(temp3, pp);\r\n\r\n      if(a1[0] != temp3[0] || a1[1] != temp3[1]) {\r\n        return false;\r\n      }\r\n\r\n      //b1 =? h^{r1} * y^{d1} (temp = affine 'y')\r\n      temp2 = Secp256k1._mul(params[2],yG);\r\n      temp3 = Secp256k1._add(temp2, Secp256k1._mul(params[0], y));\r\n      ECCMath.toZ1(temp3, pp);\r\n\r\n      if(b1[0] != temp3[0] || b1[1] != temp3[1]) {\r\n        return false;\r\n      }\r\n\r\n      //a2 =? g^{r2} * x^{d2}\r\n      temp2 = Secp256k1._mul(params[3],G);\r\n      temp3 = Secp256k1._add(temp2, Secp256k1._mul(params[1], xG));\r\n      ECCMath.toZ1(temp3, pp);\r\n\r\n      if(a2[0] != temp3[0] || a2[1] != temp3[1]) {\r\n        return false;\r\n      }\r\n\r\n      // Negate the 'y' co-ordinate of g\r\n      temp1[0] = G[0];\r\n      temp1[1] = pp - G[1];\r\n\r\n      // get 'y'\r\n      temp3[0] = y[0];\r\n      temp3[1] = y[1];\r\n      temp3[2] = 1;\r\n\r\n      // y-g\r\n      temp2 = Secp256k1._addMixed(temp3,temp1);\r\n\r\n      // Return to affine co-ordinates\r\n      ECCMath.toZ1(temp2, pp);\r\n      temp1[0] = temp2[0];\r\n      temp1[1] = temp2[1];\r\n\r\n      // (y-g)^{d2}\r\n      temp2 = Secp256k1._mul(params[1],temp1);\r\n\r\n      // Now... it is h^{r2} + temp2..\r\n      temp3 = Secp256k1._add(Secp256k1._mul(params[3],yG),temp2);\r\n\r\n      // Convert to Affine Co-ordinates\r\n      ECCMath.toZ1(temp3, pp);\r\n\r\n      // Should all match up.\r\n      if(b2[0] != temp3[0] || b2[1] != temp3[1]) {\r\n        return false;\r\n      }\r\n\r\n      return true;\r\n    } */\r\n\r\n}\r\n",
  "sourcePath": "E:\\Programming\\ovn\\vote-selling\\contracts\\AnonymousVoteSelling.sol",
  "compiler": {
    "name": "solc",
    "version": "0.4.19+commit.c4cbbb05.Emscripten.clang"
  },
  "schemaVersion": "1.0.1",
  "updatedAt": "2018-03-11T05:37:50.860Z"
}