{
  "contractName": "LocalCryptoVoteSelling",
  "abi": [
    {
      "inputs": [],
      "payable": false,
      "stateMutability": "nonpayable",
      "type": "constructor"
    },
    {
      "constant": false,
      "inputs": [
        {
          "name": "a",
          "type": "uint256"
        },
        {
          "name": "p",
          "type": "uint256"
        }
      ],
      "name": "legendreSymbol",
      "outputs": [
        {
          "name": "",
          "type": "int256"
        }
      ],
      "payable": false,
      "stateMutability": "nonpayable",
      "type": "function"
    },
    {
      "constant": false,
      "inputs": [
        {
          "name": "a",
          "type": "uint256"
        },
        {
          "name": "p",
          "type": "uint256"
        }
      ],
      "name": "sqrtmod",
      "outputs": [
        {
          "name": "",
          "type": "uint256"
        }
      ],
      "payable": false,
      "stateMutability": "nonpayable",
      "type": "function"
    },
    {
      "constant": false,
      "inputs": [
        {
          "name": "x",
          "type": "uint256"
        }
      ],
      "name": "mapToCurve",
      "outputs": [
        {
          "name": "",
          "type": "uint256[2]"
        }
      ],
      "payable": false,
      "stateMutability": "nonpayable",
      "type": "function"
    },
    {
      "constant": false,
      "inputs": [
        {
          "name": "a",
          "type": "uint256"
        },
        {
          "name": "b",
          "type": "uint256"
        }
      ],
      "name": "submod",
      "outputs": [
        {
          "name": "",
          "type": "uint256"
        }
      ],
      "payable": false,
      "stateMutability": "nonpayable",
      "type": "function"
    },
    {
      "constant": false,
      "inputs": [
        {
          "name": "publicKeys",
          "type": "uint256[]"
        },
        {
          "name": "params",
          "type": "uint256[]"
        },
        {
          "name": "w",
          "type": "uint256"
        },
        {
          "name": "x",
          "type": "uint256"
        },
        {
          "name": "y",
          "type": "uint256[2]"
        },
        {
          "name": "H",
          "type": "uint256[2]"
        },
        {
          "name": "proverIndex",
          "type": "uint256"
        }
      ],
      "name": "createZKPPublicKeys",
      "outputs": [
        {
          "name": "",
          "type": "uint256[2]"
        },
        {
          "name": "",
          "type": "uint256[]"
        },
        {
          "name": "",
          "type": "uint256[]"
        }
      ],
      "payable": false,
      "stateMutability": "nonpayable",
      "type": "function"
    },
    {
      "constant": false,
      "inputs": [
        {
          "name": "recomputedBases",
          "type": "uint256[]"
        },
        {
          "name": "votes",
          "type": "uint256[]"
        },
        {
          "name": "params",
          "type": "uint256[]"
        },
        {
          "name": "w",
          "type": "uint256"
        },
        {
          "name": "x",
          "type": "uint256"
        },
        {
          "name": "y",
          "type": "uint256[2]"
        },
        {
          "name": "H",
          "type": "uint256[2]"
        },
        {
          "name": "proverIndex",
          "type": "uint256"
        },
        {
          "name": "yesVote",
          "type": "bool"
        }
      ],
      "name": "createZKPVotes",
      "outputs": [
        {
          "name": "",
          "type": "uint256[2]"
        },
        {
          "name": "",
          "type": "uint256[]"
        },
        {
          "name": "",
          "type": "uint256[]"
        }
      ],
      "payable": false,
      "stateMutability": "nonpayable",
      "type": "function"
    },
    {
      "constant": false,
      "inputs": [
        {
          "name": "votes",
          "type": "uint256[]"
        }
      ],
      "name": "computePublicKeysFromYesVotes",
      "outputs": [
        {
          "name": "",
          "type": "uint256[]"
        }
      ],
      "payable": false,
      "stateMutability": "nonpayable",
      "type": "function"
    },
    {
      "constant": false,
      "inputs": [
        {
          "name": "bases",
          "type": "uint256[]"
        },
        {
          "name": "publicKeys",
          "type": "uint256[]"
        },
        {
          "name": "params",
          "type": "uint256[]"
        },
        {
          "name": "w",
          "type": "uint256"
        },
        {
          "name": "y",
          "type": "uint256[2]"
        },
        {
          "name": "H",
          "type": "uint256[2]"
        },
        {
          "name": "proverIndex",
          "type": "uint256"
        }
      ],
      "name": "computeIndividualZKPs",
      "outputs": [
        {
          "name": "",
          "type": "uint256[]"
        }
      ],
      "payable": false,
      "stateMutability": "nonpayable",
      "type": "function"
    },
    {
      "constant": false,
      "inputs": [
        {
          "name": "params",
          "type": "uint256[]"
        },
        {
          "name": "res",
          "type": "uint256[]"
        },
        {
          "name": "w",
          "type": "uint256"
        },
        {
          "name": "x",
          "type": "uint256"
        },
        {
          "name": "y",
          "type": "uint256[2]"
        },
        {
          "name": "H",
          "type": "uint256[2]"
        },
        {
          "name": "proverIndex",
          "type": "uint256"
        }
      ],
      "name": "computeORZKP",
      "outputs": [
        {
          "name": "",
          "type": "uint256[2]"
        },
        {
          "name": "",
          "type": "uint256[]"
        },
        {
          "name": "",
          "type": "uint256[]"
        }
      ],
      "payable": false,
      "stateMutability": "nonpayable",
      "type": "function"
    }
  ],
  "bytecode": "0x6060604052341561000f57600080fd5b7f79be667ef9dcbbac55a06295ce870b07029bfcdb2dce28d959f2815b16f8179860008060028110151561003f57fe5b01819055507f483ada7726a3c4655da4fbfc0e1108a8fd17b448a68554199c47d08ffb10d4b86000600160028110151561007557fe5b0181905550613238806100896000396000f300606060405260043610610099576000357c0100000000000000000000000000000000000000000000000000000000900463ffffffff1680632efbad271461009e5780633606de6d146100fd57806350adaf651461013d5780635f607caa14610361578063810164b5146103a1578063b259eafb1461057a578063cd43dabd146105ba578063d1a4efd114610669578063d8644f2414610842575b600080fd5b34156100a957600080fd5b6100bf60048080359060200190919050506109db565b6040518082600260200280838360005b838110156100ea5780820151818401526020810190506100cf565b5050505090500191505060405180910390f35b341561010857600080fd5b6101276004808035906020019091908035906020019091905050610ab9565b6040518082815260200191505060405180910390f35b341561014857600080fd5b6102936004808035906020019082018035906020019080806020026020016040519081016040528093929190818152602001838360200280828437820191505050505050919080359060200190820180359060200190808060200260200160405190810160405280939291908181526020018383602002808284378201915050505050509190803590602001908201803590602001908080602002602001604051908101604052809392919081815260200183836020028082843782019150505050505091908035906020019091908035906020019091908060400190600280602002604051908101604052809291908260026020028082843782019150505050509190806040019060028060200260405190810160405280929190826002602002808284378201915050505050919080359060200190919080351515906020019091905050610b28565b6040518084600260200280838360005b838110156102be5780820151818401526020810190506102a3565b505050509050018060200180602001838103835285818151815260200191508051906020019060200280838360005b838110156103085780820151818401526020810190506102ed565b50505050905001838103825284818151815260200191508051906020019060200280838360005b8381101561034a57808201518184015260208101905061032f565b505050509050019550505050505060405180910390f35b341561036c57600080fd5b61038b6004808035906020019091908035906020019091905050610ba3565b6040518082815260200191505060405180910390f35b34156103ac57600080fd5b6104ac6004808035906020019082018035906020019080806020026020016040519081016040528093929190818152602001838360200280828437820191505050505050919080359060200190820180359060200190808060200260200160405190810160405280939291908181526020018383602002808284378201915050505050509190803590602001909190803590602001909190806040019060028060200260405190810160405280929190826002602002808284378201915050505050919080604001906002806020026040519081016040528092919082600260200280828437820191505050505091908035906020019091905050610c00565b6040518084600260200280838360005b838110156104d75780820151818401526020810190506104bc565b505050509050018060200180602001838103835285818151815260200191508051906020019060200280838360005b83811015610521578082015181840152602081019050610506565b50505050905001838103825284818151815260200191508051906020019060200280838360005b83811015610563578082015181840152602081019050610548565b505050509050019550505050505060405180910390f35b341561058557600080fd5b6105a46004808035906020019091908035906020019091905050610e48565b6040518082815260200191505060405180910390f35b34156105c557600080fd5b610612600480803590602001908201803590602001908080602002602001604051908101604052809392919081815260200183836020028082843782019150505050505091905050611033565b6040518080602001828103825283818151815260200191508051906020019060200280838360005b8381101561065557808201518184015260208101905061063a565b505050509050019250505060405180910390f35b341561067457600080fd5b61077460048080359060200190820180359060200190808060200260200160405190810160405280939291908181526020018383602002808284378201915050505050509190803590602001908201803590602001908080602002602001604051908101604052809392919081815260200183836020028082843782019150505050505091908035906020019091908035906020019091908060400190600280602002604051908101604052809291908260026020028082843782019150505050509190806040019060028060200260405190810160405280929190826002602002808284378201915050505050919080359060200190919050506111cb565b6040518084600260200280838360005b8381101561079f578082015181840152602081019050610784565b505050509050018060200180602001838103835285818151815260200191508051906020019060200280838360005b838110156107e95780820151818401526020810190506107ce565b50505050905001838103825284818151815260200191508051906020019060200280838360005b8381101561082b578082015181840152602081019050610810565b505050509050019550505050505060405180910390f35b341561084d57600080fd5b6109846004808035906020019082018035906020019080806020026020016040519081016040528093929190818152602001838360200280828437820191505050505050919080359060200190820180359060200190808060200260200160405190810160405280939291908181526020018383602002808284378201915050505050509190803590602001908201803590602001908080602002602001604051908101604052809392919081815260200183836020028082843782019150505050505091908035906020019091908060400190600280602002604051908101604052809291908260026020028082843782019150505050509190806040019060028060200260405190810160405280929190826002602002808284378201915050505050919080359060200190919050506112d8565b6040518080602001828103825283818151815260200191508051906020019060200280838360005b838110156109c75780820151818401526020810190506109ac565b505050509050019250505060405180910390f35b6109e3613101565b6000806001840393505b600115610ab1577ffffffffffffffffffffffffffffffffffffffffffffffffffffffffefffffc2f60018501811515610a2257fe5b0693507ffffffffffffffffffffffffffffffffffffffffffffffffffffffffefffffc2f6007858687020201811515610a5757fe5b069050610a84817ffffffffffffffffffffffffffffffffffffffffffffffffffffffffefffffc2f610e48565b9150600082141515610aac576040805190810160405280858152602001838152509250610ab2565b6109ed565b5b5050919050565b600080600083851115610ace57849150610af4565b7ffffffffffffffffffffffffffffffffebaaedce6af48a03bbfd25e8cd0364141850191505b7ffffffffffffffffffffffffffffffffebaaedce6af48a03bbfd25e8cd03641416000858403089050809250505092915050565b610b30613101565b610b38613128565b610b40613128565b610b48613128565b8415610b6c57610b658d610b5b8e611033565b8d8d8c8c8c6112d8565b9050610b7e565b610b7b8d8d8d8d8c8c8c6112d8565b90505b610b8d8b828c8c8c8c8c610c00565b9350935093505099509950999650505050505050565b600080610bc084600260018603811515610bb957fe5b048561174a565b905060018303811415610bf5577fffffffffffffffffffffffffffffffffffffffffffffffffffffffffffffffff9150610bf9565b8091505b5092915050565b610c08613101565b610c10613128565b610c18613128565b600080600090505b60028c51811515610c2d57fe5b04811015610c8c578581141515610c7f577ffffffffffffffffffffffffffffffffebaaedce6af48a03bbfd25e8cd03641418c60028302815181101515610c7057fe5b90602001906020020151830891505b8080600101915050610c20565b610da8600233898b8f600060405160200152604051808573ffffffffffffffffffffffffffffffffffffffff1673ffffffffffffffffffffffffffffffffffffffff166c0100000000000000000000000002815260140184600260200280838360005b83811015610d0a578082015181840152602081019050610cef565b5050505090500183600260200280838360005b83811015610d38578082015181840152602081019050610d1d565b50505050905001828051906020019060200280838360005b83811015610d6b578082015181840152602081019050610d50565b5050505090500194505050505060206040518083038160008661646e5a03f11515610d9557600080fd5b5050604051805190506001900483610ab9565b8c60028802815181101515610db957fe5b9060200190602002018181525050610e0e8a7ffffffffffffffffffffffffffffffffebaaedce6af48a03bbfd25e8cd03641418e60028a02815181101515610dfd57fe5b906020019060200201518c09610ab9565b8c60016002890201815181101515610e2257fe5b9060200190602002018181525050878b8d94509450945050509750975097945050505050565b60008060008060008060008060008060006001610e658e8e610ba3565b141515610e755760009a50611023565b60008d1415610e875760009a50611023565b60028c1415610e98578b9a50611023565b600360048d811515610ea657fe5b061415610ece57610ec78d600460018f01811515610ec057fe5b048e61174a565b9a50611023565b60018c039950600098505b600060028b811515610ee757fe5b061415610f085760028a811515610efa57fe5b049950600189019850610ed9565b600297505b7fffffffffffffffffffffffffffffffffffffffffffffffffffffffffffffffff610f38898e610ba3565b141515610f4a57600188019750610f0d565b610f648d600260018d01811515610f5d57fe5b048e61174a565b9650610f718d8b8e61174a565b9550610f7e888b8e61174a565b94508893505b60011561102257859250600091505b83821015610fc4576001831415610fa957610fc4565b610fb58360028e61174a565b92508180600101925050610f93565b6000821415610fd557869a50611023565b610fe88560018487030360020a8e61174a565b90508b818202811515610ff757fe5b0694508b81880281151561100757fe5b0696508b85870281151561101757fe5b069550819350610f84565b5b5050505050505050505092915050565b61103b613128565b61104361313c565b61104b613101565b6000604080519081016040528060008060028110151561106757fe5b015481526020016000600160028110151561107e57fe5b01547ffffffffffffffffffffffffffffffffffffffffffffffffffffffffefffffc2f038152509150600090505b600285518115156110b957fe5b048110156111c05761111e60606040519081016040528087600285028151811015156110e157fe5b906020019060200201518152602001876001600286020181518110151561110457fe5b906020019060200201518152602001600181525083611809565b925061114a837ffffffffffffffffffffffffffffffffffffffffffffffffffffffffefffffc2f611c20565b82600060038110151561115957fe5b6020020151856002830281518110151561116f57fe5b906020019060200201818152505082600160038110151561118c57fe5b602002015185600160028402018151811015156111a557fe5b906020019060200201818152505080806001019150506110ac565b849350505050919050565b6111d3613101565b6111db613128565b6111e3613128565b6111eb613128565b60006111f5613128565b8c516040518059106112045750595b90808252806020026020018201604052509250600091505b60028d5181151561122957fe5b048210156112a25760008060028110151561124057fe5b0154836002840281518110151561125357fe5b90602001906020020181815250506000600160028110151561127157fe5b0154836001600285020181518110151561128757fe5b9060200190602002018181525050818060010192505061121c565b6112b1838e8e8e8d8d8d6112d8565b90506112c28c828d8d8d8d8d610c00565b9550955095505050509750975097945050505050565b6112e0613128565b6112e8613128565b6112f061313c565b600060028a51026040518059106113045750595b90808252806020026020018201604052509250600090505b6002895181151561132957fe5b0481101561173957848114156114ca576113438887611cc9565b915061136f827ffffffffffffffffffffffffffffffffffffffffffffffffffffffffefffffc2f611c20565b81600060038110151561137e57fe5b6020020151836004830281518110151561139457fe5b90602001906020020181815250508160016003811015156113b157fe5b602002015183600160048402018151811015156113ca57fe5b906020019060200201818152505061142d8860408051908101604052808e600286028151811015156113f857fe5b9060200190602002015181526020018e6001600287020181518110151561141b57fe5b90602001906020020151815250611cc9565b9150611459827ffffffffffffffffffffffffffffffffffffffffffffffffffffffffefffffc2f611c20565b81600060038110151561146857fe5b6020020151836002600484020181518110151561148157fe5b906020019060200201818152505081600160038110151561149e57fe5b602002015183600360048402018151811015156114b757fe5b906020019060200201818152505061172c565b6114f189600160028402018151811015156114e157fe5b9060200190602002015187611cc9565b91506115208261151b8b6002850281518110151561150b57fe5b906020019060200201518a611cc9565b6124f8565b915061154c827ffffffffffffffffffffffffffffffffffffffffffffffffffffffffefffffc2f611c20565b81600060038110151561155b57fe5b6020020151836004830281518110151561157157fe5b906020019060200201818152505081600160038110151561158e57fe5b602002015183600160048402018151811015156115a757fe5b906020019060200201818152505061161989600160028402018151811015156115cc57fe5b90602001906020020151600060028060200260405190810160405280929190826002801561160f576020028201915b8154815260200190600101908083116115fb575b5050505050611cc9565b91506116938261168e8b6002850281518110151561163357fe5b9060200190602002015160408051908101604052808f6002880281518110151561165957fe5b9060200190602002015181526020018f6001600289020181518110151561167c57fe5b90602001906020020151815250611cc9565b6124f8565b91506116bf827ffffffffffffffffffffffffffffffffffffffffffffffffffffffffefffffc2f611c20565b8160006003811015156116ce57fe5b602002015183600260048402018151811015156116e757fe5b906020019060200201818152505081600160038110151561170457fe5b6020020151836003600484020181518110151561171d57fe5b90602001906020020181815250505b808060010191505061131c565b829350505050979650505050505050565b600080600085141561175f5760009150611801565b60008414156117715760019150611801565b600083141561177f57600080fd5b600191507f800000000000000000000000000000000000000000000000000000000000000090508090505b801561180057828185161515860a84848509099150826002820485161515860a84848509099150826004820485161515860a84848509099150826008820485161515860a848485090991506010810490506117aa565b5b509392505050565b61181161313c565b600061181b613101565b611823613164565b6000806000806000808b600260038110151561183b57fe5b60200201511415611890576060604051908101604052808b600060028110151561186157fe5b602002015181526020018b600160028110151561187a57fe5b6020020151815260200160018152509850611c12565b60008a60016002811015156118a157fe5b602002015114156118b4578a9850611c12565b7ffffffffffffffffffffffffffffffffffffffffffffffffffffffffefffffc2f9750878b60026003811015156118e757fe5b60200201518c60026003811015156118fb57fe5b60200201510987600060028110151561191057fe5b6020020181815250508787600060028110151561192957fe5b60200201518c600260038110151561193d57fe5b60200201510987600160028110151561195257fe5b6020020181815250506080604051908101604052808c600060038110151561197657fe5b602002015181526020018c600160038110151561198f57fe5b60200201518152602001898960006002811015156119a957fe5b60200201518d60006002811015156119bd57fe5b6020020151098152602001898960016002811015156119d857fe5b60200201518d60016002811015156119ec57fe5b6020020151098152509550856002600481101515611a0657fe5b6020020151866000600481101515611a1a57fe5b60200201511415611ab657856003600481101515611a3457fe5b6020020151866001600481101515611a4857fe5b6020020151141515611aa75760008b6000600381101515611a6557fe5b60200201818152505060008b6001600381101515611a7f57fe5b60200201818152505060008b6002600381101515611a9957fe5b602002018181525050611c12565b611ab08b612946565b50611c12565b87866000600481101515611ac657fe5b60200201518903876002600481101515611adc57fe5b602002015108945087866001600481101515611af457fe5b60200201518903876003600481101515611b0a57fe5b6020020151089350878586099250878584099150878289038986870908905087888985896000600481101515611b3c57fe5b60200201510960020989038208905080896000600381101515611b5b57fe5b6020020181815250508788828a038a868a6000600481101515611b7a57fe5b602002015109088509896001600381101515611b9257fe5b602002018181525050878883886001600481101515611bad57fe5b60200201510989038a6001600381101515611bc457fe5b602002015108896001600381101515611bd957fe5b602002018181525050878b6002600381101515611bf257fe5b60200201518609896002600381101515611c0857fe5b6020020181815250505b505050505050505092915050565b600080611c40846002600381101515611c3557fe5b602002015184612a77565b91508282830990508281856000600381101515611c5957fe5b602002015109846000600381101515611c6e57fe5b6020020181815250508283828409856001600381101515611c8b57fe5b602002015109846001600381101515611ca057fe5b6020020181815250506001846002600381101515611cba57fe5b60200201818152505050505050565b611cd161313c565b6000806000611cde61318c565b611ce661313c565b611cee6131bb565b60008060007ffffffffffffffffffffffffffffffffffffffffffffffffffffffffefffffc2f985060008c1415611d24576124e9565b6000604051985061020089016040525b8c15611d6d5760018d1615611d5c5760208d06905080888a015360206010821102818e03019c505b60028d049c50600188019750611d34565b508797506060604051908101604052808c6000600281101515611d8c57fe5b602002015181526020018c6001600281101515611da557fe5b602002015181526020016001815250866000600881101515611dc357fe5b6020020181905250611de7866000600881101515611ddd57fe5b6020020151612946565b9450611df3858c611809565b866001600881101515611e0257fe5b6020020181905250611e2785876001600881101515611e1d57fe5b60200201516124f8565b866002600881101515611e3657fe5b6020020181905250611e5b85876002600881101515611e5157fe5b60200201516124f8565b866003600881101515611e6a57fe5b6020020181905250611e8f85876003600881101515611e8557fe5b60200201516124f8565b866004600881101515611e9e57fe5b6020020181905250611ec385876004600881101515611eb957fe5b60200201516124f8565b866005600881101515611ed257fe5b6020020181905250611ef785876005600881101515611eed57fe5b60200201516124f8565b866006600881101515611f0657fe5b6020020181905250611f2b85876006600881101515611f2157fe5b60200201516124f8565b866007600881101515611f3a57fe5b6020020181905250856001600881101515611f5157fe5b60200201516002600381101515611f6457fe5b6020020151846000601081101515611f7857fe5b60200201818152505088846000601081101515611f9157fe5b6020020151876002600881101515611fa557fe5b60200201516002600381101515611fb857fe5b602002015109846001601081101515611fcd57fe5b60200201818152505088846001601081101515611fe657fe5b6020020151876003600881101515611ffa57fe5b6020020151600260038110151561200d57fe5b60200201510984600260108110151561202257fe5b6020020181815250508884600260108110151561203b57fe5b602002015187600460088110151561204f57fe5b6020020151600260038110151561206257fe5b60200201510984600360108110151561207757fe5b6020020181815250508884600360108110151561209057fe5b60200201518760056008811015156120a457fe5b602002015160026003811015156120b757fe5b6020020151098460046010811015156120cc57fe5b602002018181525050888460046010811015156120e557fe5b60200201518760066008811015156120f957fe5b6020020151600260038110151561210c57fe5b60200201510984600560108110151561212157fe5b6020020181815250508884600560108110151561213a57fe5b602002015187600760088110151561214e57fe5b6020020151600260038110151561216157fe5b60200201510984600660108110151561217657fe5b60200201818152505061219c84600660108110151561219157fe5b60200201518a612a77565b8460076010811015156121ab57fe5b6020020181815250508360076010811015156121c357fe5b60200201518460086010811015156121d757fe5b602002018181525050888460086010811015156121f057fe5b602002015185600560108110151561220457fe5b60200201510984600f60108110151561221957fe5b602002018181525050600692505b6002831015156122dc578884600860108110151561224157fe5b6020020151876001860160088110151561225757fe5b6020020151600260038110151561226a57fe5b60200201510984600860108110151561227f57fe5b6020020181815250508884600860108110151561229857fe5b602002015185600286036010811015156122ae57fe5b60200201510984846008016010811015156122c557fe5b602002018181525050828060019003935050612227565b888460086010811015156122ec57fe5b602002015187600260088110151561230057fe5b6020020151600260038110151561231357fe5b60200201510984600960108110151561232857fe5b602002018181525050600092505b60078310156123af576123a2866001850160088110151561235357fe5b6020020151856009860160108110151561236957fe5b60200201518b876009880160108110151561238057fe5b6020020151886009890160108110151561239657fe5b6020020151098c612b23565b8280600101935050612336565b5b60008711156124e8578680600190039750508688015160001a91506123d48a612ba4565b601082111561245e57600282601f038115156123ec57fe5b0490506124598a6040805190810160405280898560088110151561240c57fe5b6020020151600060038110151561241f57fe5b60200201518152602001898560088110151561243757fe5b6020020151600160038110151561244a57fe5b60200201518d03815250612ccb565b6124e3565b60008211156124e25760026001830381151561247657fe5b0490506124e18a6040805190810160405280898560088110151561249657fe5b602002015160006003811015156124a957fe5b6020020151815260200189856008811015156124c157fe5b602002015160016003811015156124d457fe5b6020020151815250612ccb565b5b5b6123b0565b5b50505050505050505092915050565b61250061313c565b600061250a613164565b612512613164565b6000806000806000808b600260038110151561252a57fe5b6020020151141561253d57899850612938565b60008a600260038110151561254e57fe5b60200201511415612561578a9850612938565b7ffffffffffffffffffffffffffffffffffffffffffffffffffffffffefffffc2f9750878b600260038110151561259457fe5b60200201518c60026003811015156125a857fe5b6020020151098760006004811015156125bd57fe5b602002018181525050878760006004811015156125d657fe5b60200201518c60026003811015156125ea57fe5b6020020151098760016004811015156125ff57fe5b602002018181525050878a600260038110151561261857fe5b60200201518b600260038110151561262c57fe5b60200201510987600260048110151561264157fe5b6020020181815250508787600260048110151561265a57fe5b60200201518b600260038110151561266e57fe5b60200201510987600360048110151561268357fe5b602002018181525050608060405190810160405280898960026004811015156126a857fe5b60200201518e60006003811015156126bc57fe5b6020020151098152602001898960036004811015156126d757fe5b60200201518e60016003811015156126eb57fe5b60200201510981526020018989600060048110151561270657fe5b60200201518d600060038110151561271a57fe5b60200201510981526020018989600160048110151561273557fe5b60200201518d600160038110151561274957fe5b602002015109815250955085600260048110151561276357fe5b602002015186600060048110151561277757fe5b602002015114156127c65785600360048110151561279157fe5b60200201518660016004811015156127a557fe5b60200201511415156127b657612938565b6127bf8b612946565b9850612938565b878660006004811015156127d657fe5b602002015189038760026004811015156127ec57fe5b60200201510894508786600160048110151561280457fe5b6020020151890387600360048110151561281a57fe5b602002015108935087858609925087858409915087828903898687090890508788898589600060048110151561284c57fe5b6020020151096002098903820890508089600060038110151561286b57fe5b6020020181815250508788828a038a868a600060048110151561288a57fe5b6020020151090885098960016003811015156128a257fe5b6020020181815250508788838860016004811015156128bd57fe5b60200201510989038a60016003811015156128d457fe5b6020020151088960016003811015156128e957fe5b60200201818152505087888b600260038110151561290357fe5b60200201518d600260038110151561291757fe5b602002015109860989600260038110151561292e57fe5b6020020181815250505b505050505050505092915050565b61294e61313c565b60008060008060008060007ffffffffffffffffffffffffffffffffffffffffffffffffffffffffefffffc2f9650600089600260038110151561298d57fe5b6020020151141561299d57612a6b565b8860006003811015156129ac57fe5b602002015195508860016003811015156129c257fe5b602002015194508685860993508687858809600409925086878788096003099150868784850888038884850908905080886000600381101515612a0157fe5b60200201818152505086878886870960080988038889848b038708850908886001600381101515612a2e57fe5b60200201818152505086878a6002600381101515612a4857fe5b60200201518709600209886002600381101515612a6157fe5b6020020181815250505b50505050505050919050565b6000806000806000806000881480612a8e57508688145b80612a995750600087145b15612aa357600080fd5b86881115612aba578688811515612ab657fe5b0697505b600193508692508791505b600082141515612afe578183811515612ada57fe5b04905083848202860383848402860380955081965082975083985050505050612ac5565b6000851215612b14578460000387039550612b18565b8495505b505050505092915050565b8082856000600381101515612b3457fe5b602002015109846000600381101515612b4957fe5b6020020181815250508081838509856001600381101515612b6657fe5b602002015109846001600381101515612b7b57fe5b6020020181815250506001846002600381101515612b9557fe5b60200201818152505050505050565b60008060008060008060007ffffffffffffffffffffffffffffffffffffffffffffffffffffffffefffffc2f96506000886002600381101515612be357fe5b60200201511415612bf357612cc1565b876000600381101515612c0257fe5b60200201519550876001600381101515612c1857fe5b602002015194508685860993508687858809600409925086878788096003099150868784850888038884850908905080886000600381101515612c5757fe5b60200201818152505086878886870960080988038889848b038708850908886001600381101515612c8457fe5b6020020181815250508687896002600381101515612c9e57fe5b60200201518709600209886002600381101515612cb757fe5b6020020181815250505b5050505050505050565b6000612cd5613101565b612cdd613164565b6000806000806000808a6001600381101515612cf557fe5b60200201511415612d7757886000600281101515612d0f57fe5b60200201518a6000600381101515612d2357fe5b602002018181525050886001600281101515612d3b57fe5b60200201518a6001600381101515612d4f57fe5b60200201818152505060018a6002600381101515612d6957fe5b6020020181815250506130f5565b6000896001600281101515612d8857fe5b60200201511415612d98576130f5565b7ffffffffffffffffffffffffffffffffffffffffffffffffffffffffefffffc2f9750878a6002600381101515612dcb57fe5b60200201518b6002600381101515612ddf57fe5b602002015109876000600281101515612df457fe5b60200201818152505087876000600281101515612e0d57fe5b60200201518b6002600381101515612e2157fe5b602002015109876001600281101515612e3657fe5b6020020181815250506080604051908101604052808b6000600381101515612e5a57fe5b602002015181526020018b6001600381101515612e7357fe5b6020020151815260200189896000600281101515612e8d57fe5b60200201518c6000600281101515612ea157fe5b602002015109815260200189896001600281101515612ebc57fe5b60200201518c6001600281101515612ed057fe5b6020020151098152509550856002600481101515612eea57fe5b6020020151866000600481101515612efe57fe5b60200201511415612f9957856003600481101515612f1857fe5b6020020151866001600481101515612f2c57fe5b6020020151141515612f8b5760008a6000600381101515612f4957fe5b60200201818152505060008a6001600381101515612f6357fe5b60200201818152505060008a6002600381101515612f7d57fe5b6020020181815250506130f5565b612f948a612ba4565b6130f5565b87866000600481101515612fa957fe5b60200201518903876002600481101515612fbf57fe5b602002015108945087866001600481101515612fd757fe5b60200201518903876003600481101515612fed57fe5b602002015108935087858609925087858409915087828903898687090890508788898589600060048110151561301f57fe5b602002015109600209890382089050808a600060038110151561303e57fe5b6020020181815250508788828a038a868a600060048110151561305d57fe5b6020020151090885098a600160038110151561307557fe5b60200201818152505087888388600160048110151561309057fe5b60200201510989038b60016003811015156130a757fe5b6020020151088a60016003811015156130bc57fe5b602002018181525050878a60026003811015156130d557fe5b602002015186098a60026003811015156130eb57fe5b6020020181815250505b50505050505050505050565b60408051908101604052806002905b60008152602001906001900390816131105790505090565b602060405190810160405280600081525090565b6060604051908101604052806003905b600081526020019060019003908161314c5790505090565b6080604051908101604052806004905b60008152602001906001900390816131745790505090565b610300604051908101604052806008905b6131a56131e4565b81526020019060019003908161319d5790505090565b610200604051908101604052806010905b60008152602001906001900390816131cc5790505090565b6060604051908101604052806003905b60008152602001906001900390816131f457905050905600a165627a7a723058208e0a15002e5f80ea9d5481ce50b2ecaa052593e86224927f34546e655861d5330029",
  "source": "pragma solidity ^0.4.18;\r\n\r\nimport \"./Secp256k1.sol\";\r\n\r\ncontract LocalCryptoVoteSelling {\r\n\r\n    // Modulus for public keys\r\n    uint constant pp = 0xFFFFFFFFFFFFFFFFFFFFFFFFFFFFFFFFFFFFFFFFFFFFFFFFFFFFFFFEFFFFFC2F;\r\n\r\n    // Base point (generator) G\r\n    uint constant Gx = 0x79BE667EF9DCBBAC55A06295CE870B07029BFCDB2DCE28D959F2815B16F81798;\r\n    uint constant Gy = 0x483ADA7726A3C4655DA4FBFC0E1108A8FD17B448A68554199C47D08FFB10D4B8;\r\n\r\n    // Modulus for private keys (sub-group)\r\n    uint constant nn = 0xFFFFFFFFFFFFFFFFFFFFFFFFFFFFFFFEBAAEDCE6AF48A03BBFD25E8CD0364141;\r\n\r\n    uint[2] G;\r\n\r\n    function LocalCryptoVoteSelling() {\r\n        G[0] = Gx;\r\n        G[1] = Gy;\r\n    }\r\n\r\n    function legendreSymbol(uint a, uint p) returns (int) {\r\n        uint ls = ECCMath.expmod(a, (p - 1) / 2, p);\r\n        if (ls == p - 1) {\r\n            return -1;\r\n        } else {\r\n            return int(ls);\r\n        }\r\n    }\r\n\r\n    function sqrtmod(uint a, uint p) returns (uint) {\r\n        if (legendreSymbol(a, p) != 1) {\r\n            return 0;\r\n        } else if (a == 0) {\r\n            return 0;\r\n        } else if (p == 2) {\r\n            return p;\r\n        } else if (p % 4 == 3) {\r\n            return ECCMath.expmod(a, (p + 1) / 4, p);\r\n        }\r\n\r\n        uint s = p - 1;\r\n        uint e = 0;\r\n        while (s % 2 == 0) {\r\n            s /= 2;\r\n            e += 1;\r\n        }\r\n\r\n        uint n = 2;\r\n        while (legendreSymbol(n, p) != -1) {\r\n            n += 1;\r\n        }\r\n        uint x = ECCMath.expmod(a, (s + 1) / 2, p);\r\n        uint b = ECCMath.expmod(a, s, p);\r\n        uint g = ECCMath.expmod(n, s, p);\r\n        uint r = e;\r\n\r\n        while (true) {\r\n            uint t = b;\r\n            for (uint m = 0; m < r; m++) {\r\n                if (t == 1) {\r\n                    break;\r\n                }\r\n                t = ECCMath.expmod(t, 2, p);\r\n            }\r\n\r\n            if (m == 0) {\r\n                return x;\r\n            }\r\n            uint gs = ECCMath.expmod(g, 2 ** (r - m - 1), p);\r\n            g = (gs * gs) % p;\r\n            x = (x * gs) % p;\r\n            b = (b * g) % p;\r\n            r = m;\r\n        }\r\n    }\r\n\r\n    function mapToCurve(uint x) returns (uint[2]) {\r\n        x -= 1;\r\n        uint y;\r\n        uint f_x;\r\n\r\n        while (true) {\r\n            x = (x + 1) % pp;\r\n            f_x = (x * x * x + 7) % pp;\r\n            y = sqrtmod(f_x, pp);\r\n            if (y != 0) {\r\n                return [x, y];\r\n            }\r\n        }\r\n    }\r\n\r\n    // a - b = c;\r\n    function submod(uint a, uint b) returns (uint){\r\n        uint a_nn;\r\n\r\n        if(a>b) {\r\n          a_nn = a;\r\n        } else {\r\n          a_nn = a+nn;\r\n        }\r\n\r\n        uint c = addmod(a_nn - b,0,nn);\r\n\r\n        return c;\r\n    }\r\n\r\n\r\n    /* function computeRealStep (uint w, uint[2] storage base1, uint[2] storage base2) internal returns (uint[3], uint[3]) {\r\n        uint[3] temp1 = Secp256k1._mul(w, base1);\r\n        ECCMath.toZ1(temp1, pp);\r\n        uint[3] temp2 = Secp256k1._mul(w, base2);\r\n        ECCMath.toZ1(temp2, pp);\r\n        return (temp1,temp2);\r\n    } */\r\n\r\n    function createZKPPublicKeys(uint[] publicKeys, uint[] params, uint w, uint x, uint[2] y, uint[2] H, uint proverIndex) returns (uint[2], uint[], uint[]) {\r\n        uint[] memory bases = new uint[](publicKeys.length);\r\n        for(uint i = 0; i < publicKeys.length/2; i++) {\r\n            bases[i*2] = G[0];\r\n            bases[i*2+1] = G[1];\r\n        }\r\n        uint[] memory res = computeIndividualZKPs(bases, publicKeys, params, w, y, H, proverIndex);\r\n        return computeORZKP(params, res, w, x, y, H, proverIndex);\r\n    }\r\n\r\n    function createZKPVotes (uint[] recomputedBases, uint[] votes, uint[] params, uint w, uint x, uint[2] y, uint[2] H, uint proverIndex, bool yesVote) returns (uint[2], uint[], uint[]) {\r\n        uint[] memory res;\r\n        if (yesVote) {\r\n            res = computeIndividualZKPs(recomputedBases, computePublicKeysFromYesVotes(votes), params, w, y, H, proverIndex);\r\n        } else {\r\n            res = computeIndividualZKPs(recomputedBases, votes, params, w, y, H, proverIndex);\r\n        }\r\n        return computeORZKP(params, res, w, x, y, H, proverIndex);\r\n    }\r\n\r\n    function computePublicKeysFromYesVotes (uint[] votes) returns (uint[]) {\r\n        // Negate the 'y' co-ordinate of G\r\n        uint[3] memory temp1;\r\n        uint[2] memory temp_affine1 = [G[0], pp - G[1]];\r\n\r\n        for (uint i = 0; i < votes.length/2; i++) {\r\n            temp1 = Secp256k1._addMixed([votes[i*2], votes[i*2+1], 1], temp_affine1);\r\n            ECCMath.toZ1(temp1, pp);\r\n            votes[i*2] = temp1[0];\r\n            votes[i*2+1] = temp1[1];\r\n        }\r\n        return votes;\r\n    }\r\n\r\n    function computeIndividualZKPs (uint[] bases, uint[] publicKeys, uint[] params, uint w, uint[2] y, uint[2] H, uint proverIndex) returns (uint[]) {\r\n        uint[] memory res = new uint[](publicKeys.length*2);\r\n        uint[3] memory temp1;\r\n\r\n        for (uint i = 0; i < params.length/2; i++) {\r\n            if (i == proverIndex) {\r\n                temp1 = Secp256k1._mul(w, H);\r\n                ECCMath.toZ1(temp1, pp);\r\n\r\n                res[i*4] = temp1[0];\r\n                res[i*4+1] = temp1[1];\r\n\r\n                temp1 = Secp256k1._mul(w, [bases[i*2], bases[i*2+1]]);\r\n                ECCMath.toZ1(temp1, pp);\r\n\r\n                res[i*4+2] = temp1[0];\r\n                res[i*4+3] = temp1[1];\r\n            } else {\r\n                temp1 = Secp256k1._mul(params[i*2+1], H);\r\n                temp1 = Secp256k1._add(temp1, Secp256k1._mul(params[i*2], y));\r\n                ECCMath.toZ1(temp1, pp);\r\n\r\n                res[i*4] = temp1[0];\r\n                res[i*4+1] = temp1[1];\r\n\r\n                temp1 = Secp256k1._mul(params[i*2+1], G);\r\n                temp1 = Secp256k1._add(temp1, Secp256k1._mul(params[i*2], [publicKeys[i*2], publicKeys[i*2+1]]));\r\n                ECCMath.toZ1(temp1, pp);\r\n\r\n                res[i*4+2] = temp1[0];\r\n                res[i*4+3] = temp1[1];\r\n            }\r\n        }\r\n        return res;\r\n    }\r\n\r\n    function computeORZKP (uint[] params, uint[] res, uint w, uint x, uint[2] y, uint[2] H, uint proverIndex) returns (uint[2], uint[], uint[]) {\r\n        uint dSum;\r\n\r\n        for(uint i = 0; i < params.length/2; i++) {\r\n            if(i != proverIndex) {\r\n                dSum = addmod(dSum, params[i*2], nn);\r\n            }\r\n        }\r\n\r\n        // d_prover_index = c - d_sum mod q\r\n        params[proverIndex*2] = submod(uint(sha256(msg.sender, H, y, res)), dSum);\r\n\r\n        // r_prover_index = w - (x * d_prover_index) mod q\r\n        params[proverIndex*2+1] = submod(w, mulmod(x, params[proverIndex*2], nn));\r\n\r\n        return (y, res, params);\r\n    }\r\n}\r\n",
  "sourcePath": "E:\\Programming\\ovn\\coerce\\contracts\\LocalCryptoVoteSelling.sol",
  "compiler": {
    "name": "solc",
    "version": "0.4.19+commit.c4cbbb05.Emscripten.clang"
  },
  "schemaVersion": "1.0.1",
  "updatedAt": "2018-02-19T21:14:36.487Z"
}