{
  "contractName": "LocalCrypto",
  "abi": [
    {
      "inputs": [],
      "payable": false,
      "stateMutability": "nonpayable",
      "type": "constructor"
    },
    {
      "anonymous": false,
      "inputs": [
        {
          "indexed": false,
          "name": "x1",
          "type": "uint256"
        },
        {
          "indexed": false,
          "name": "x2",
          "type": "uint256"
        }
      ],
      "name": "Debug",
      "type": "event"
    },
    {
      "constant": false,
      "inputs": [
        {
          "name": "params",
          "type": "uint256[4]"
        },
        {
          "name": "xG",
          "type": "uint256[2]"
        },
        {
          "name": "yG",
          "type": "uint256[2]"
        },
        {
          "name": "y",
          "type": "uint256[2]"
        },
        {
          "name": "a1",
          "type": "uint256[2]"
        },
        {
          "name": "b1",
          "type": "uint256[2]"
        },
        {
          "name": "a2",
          "type": "uint256[2]"
        },
        {
          "name": "b2",
          "type": "uint256[2]"
        }
      ],
      "name": "commitToVote",
      "outputs": [
        {
          "name": "",
          "type": "bytes32"
        }
      ],
      "payable": false,
      "stateMutability": "nonpayable",
      "type": "function"
    },
    {
      "constant": false,
      "inputs": [
        {
          "name": "x",
          "type": "uint256"
        },
        {
          "name": "v",
          "type": "uint256"
        },
        {
          "name": "xG",
          "type": "uint256[2]"
        }
      ],
      "name": "createZKP",
      "outputs": [
        {
          "name": "res",
          "type": "uint256[4]"
        }
      ],
      "payable": false,
      "stateMutability": "nonpayable",
      "type": "function"
    },
    {
      "constant": false,
      "inputs": [
        {
          "name": "a",
          "type": "uint256"
        },
        {
          "name": "b",
          "type": "uint256"
        }
      ],
      "name": "submod",
      "outputs": [
        {
          "name": "",
          "type": "uint256"
        }
      ],
      "payable": false,
      "stateMutability": "nonpayable",
      "type": "function"
    },
    {
      "constant": false,
      "inputs": [
        {
          "name": "xG",
          "type": "uint256[2]"
        },
        {
          "name": "r",
          "type": "uint256"
        },
        {
          "name": "vG",
          "type": "uint256[3]"
        }
      ],
      "name": "verifyZKP",
      "outputs": [
        {
          "name": "",
          "type": "bool"
        }
      ],
      "payable": false,
      "stateMutability": "nonpayable",
      "type": "function"
    },
    {
      "constant": false,
      "inputs": [
        {
          "name": "xG",
          "type": "uint256[2]"
        },
        {
          "name": "yG",
          "type": "uint256[2]"
        },
        {
          "name": "w",
          "type": "uint256"
        },
        {
          "name": "r2",
          "type": "uint256"
        },
        {
          "name": "d2",
          "type": "uint256"
        },
        {
          "name": "x",
          "type": "uint256"
        }
      ],
      "name": "create1outof2ZKPNoVote",
      "outputs": [
        {
          "name": "res",
          "type": "uint256[10]"
        },
        {
          "name": "res2",
          "type": "uint256[4]"
        }
      ],
      "payable": false,
      "stateMutability": "nonpayable",
      "type": "function"
    },
    {
      "constant": false,
      "inputs": [
        {
          "name": "xG",
          "type": "uint256[2]"
        },
        {
          "name": "yG",
          "type": "uint256[2]"
        },
        {
          "name": "w",
          "type": "uint256"
        },
        {
          "name": "r1",
          "type": "uint256"
        },
        {
          "name": "d1",
          "type": "uint256"
        },
        {
          "name": "x",
          "type": "uint256"
        }
      ],
      "name": "create1outof2ZKPYesVote",
      "outputs": [
        {
          "name": "res",
          "type": "uint256[10]"
        },
        {
          "name": "res2",
          "type": "uint256[4]"
        }
      ],
      "payable": false,
      "stateMutability": "nonpayable",
      "type": "function"
    },
    {
      "constant": false,
      "inputs": [
        {
          "name": "params",
          "type": "uint256[4]"
        },
        {
          "name": "xG",
          "type": "uint256[2]"
        },
        {
          "name": "yG",
          "type": "uint256[2]"
        },
        {
          "name": "y",
          "type": "uint256[2]"
        },
        {
          "name": "a1",
          "type": "uint256[2]"
        },
        {
          "name": "b1",
          "type": "uint256[2]"
        },
        {
          "name": "a2",
          "type": "uint256[2]"
        },
        {
          "name": "b2",
          "type": "uint256[2]"
        }
      ],
      "name": "verify1outof2ZKP",
      "outputs": [
        {
          "name": "",
          "type": "bool"
        }
      ],
      "payable": false,
      "stateMutability": "nonpayable",
      "type": "function"
    },
    {
      "constant": false,
      "inputs": [
        {
          "name": "r",
          "type": "uint256"
        },
        {
          "name": "b",
          "type": "uint256"
        }
      ],
      "name": "createCommitment",
      "outputs": [
        {
          "name": "",
          "type": "uint256[2]"
        }
      ],
      "payable": false,
      "stateMutability": "nonpayable",
      "type": "function"
    },
    {
      "constant": false,
      "inputs": [
        {
          "name": "c",
          "type": "uint256[2]"
        },
        {
          "name": "r",
          "type": "uint256"
        },
        {
          "name": "b",
          "type": "uint256"
        }
      ],
      "name": "openCommitment",
      "outputs": [
        {
          "name": "",
          "type": "bool"
        }
      ],
      "payable": false,
      "stateMutability": "nonpayable",
      "type": "function"
    },
    {
      "constant": false,
      "inputs": [
        {
          "name": "r1",
          "type": "uint256"
        },
        {
          "name": "r2",
          "type": "uint256"
        },
        {
          "name": "r3",
          "type": "uint256"
        },
        {
          "name": "c1",
          "type": "uint256[2]"
        },
        {
          "name": "c2",
          "type": "uint256[2]"
        }
      ],
      "name": "createEqualityProof",
      "outputs": [
        {
          "name": "t",
          "type": "uint256[2]"
        },
        {
          "name": "n",
          "type": "uint256"
        }
      ],
      "payable": false,
      "stateMutability": "nonpayable",
      "type": "function"
    },
    {
      "constant": false,
      "inputs": [
        {
          "name": "c1",
          "type": "uint256[2]"
        },
        {
          "name": "c2",
          "type": "uint256[2]"
        },
        {
          "name": "h",
          "type": "uint256"
        },
        {
          "name": "t",
          "type": "uint256[2]"
        }
      ],
      "name": "computeFirstHalfEquality",
      "outputs": [
        {
          "name": "left",
          "type": "uint256[2]"
        }
      ],
      "payable": false,
      "stateMutability": "nonpayable",
      "type": "function"
    },
    {
      "constant": false,
      "inputs": [
        {
          "name": "n",
          "type": "uint256"
        },
        {
          "name": "c1",
          "type": "uint256[2]"
        },
        {
          "name": "c2",
          "type": "uint256[2]"
        },
        {
          "name": "t",
          "type": "uint256[2]"
        }
      ],
      "name": "verifyEqualityProof",
      "outputs": [
        {
          "name": "",
          "type": "bool"
        }
      ],
      "payable": false,
      "stateMutability": "nonpayable",
      "type": "function"
    },
    {
      "constant": false,
      "inputs": [
        {
          "name": "b1",
          "type": "uint256"
        },
        {
          "name": "b2",
          "type": "uint256"
        },
        {
          "name": "r1",
          "type": "uint256"
        },
        {
          "name": "r2",
          "type": "uint256"
        },
        {
          "name": "r3",
          "type": "uint256"
        },
        {
          "name": "r4",
          "type": "uint256"
        },
        {
          "name": "c1",
          "type": "uint256[2]"
        },
        {
          "name": "c2",
          "type": "uint256[2]"
        }
      ],
      "name": "createInequalityProof",
      "outputs": [
        {
          "name": "t1",
          "type": "uint256[2]"
        },
        {
          "name": "t2",
          "type": "uint256[2]"
        },
        {
          "name": "n1",
          "type": "uint256"
        },
        {
          "name": "n2",
          "type": "uint256"
        }
      ],
      "payable": false,
      "stateMutability": "nonpayable",
      "type": "function"
    },
    {
      "constant": false,
      "inputs": [
        {
          "name": "c1",
          "type": "uint256[2]"
        },
        {
          "name": "c2",
          "type": "uint256[2]"
        },
        {
          "name": "t2",
          "type": "uint256[2]"
        },
        {
          "name": "h",
          "type": "uint256"
        }
      ],
      "name": "computeSecondHalfInequality",
      "outputs": [
        {
          "name": "right",
          "type": "uint256[3]"
        }
      ],
      "payable": false,
      "stateMutability": "nonpayable",
      "type": "function"
    },
    {
      "constant": false,
      "inputs": [
        {
          "name": "c1",
          "type": "uint256[2]"
        },
        {
          "name": "c2",
          "type": "uint256[2]"
        },
        {
          "name": "t1",
          "type": "uint256[2]"
        },
        {
          "name": "t2",
          "type": "uint256[2]"
        },
        {
          "name": "n1",
          "type": "uint256"
        },
        {
          "name": "n2",
          "type": "uint256"
        }
      ],
      "name": "verifyInequalityProof",
      "outputs": [
        {
          "name": "",
          "type": "bool"
        }
      ],
      "payable": false,
      "stateMutability": "nonpayable",
      "type": "function"
    }
  ],
  "bytecode": "0x606060405234156200001057600080fd5b7f79be667ef9dcbbac55a06295ce870b07029bfcdb2dce28d959f2815b16f817986000806002811015156200004157fe5b01819055507f483ada7726a3c4655da4fbfc0e1108a8fd17b448a68554199c47d08ffb10d4b8600060016002811015156200007857fe5b01819055507fd8bf8b6616bb7d183e2192e1f95bf5a09868dfb1f2e0556d4ab7f572b3c2e0cc60026000600281101515620000af57fe5b01819055507f03fb65bd9acc08d00f5fb91014acc61522aa96c79e3b1aadf3bef0fa7b9c3a0960026001600281101515620000e657fe5b018190555061518d80620000fb6000396000f3006060604052600436106100db576000357c0100000000000000000000000000000000000000000000000000000000900463ffffffff1680630dfe4e6a146100e057806316f9f5211461027657806327c40b041461037757806328e44298146104475780633447e09b146105065780633606de6d146105e95780638a6ab9c71461062957806391ee81c314610699578063a1f70a5d1461072d578063b7676b2a1461084e578063c07bbc87146108b6578063dae176e014610a48578063dba6c34d14610b49578063f5a93beb14610c2c578063fb3f0d6f14610d20575b600080fd5b34156100eb57600080fd5b610258600480806080019060048060200260405190810160405280929190826004602002808284378201915050505050919080604001906002806020026040519081016040528092919082600260200280828437820191505050505091908060400190600280602002604051908101604052809291908260026020028082843782019150505050509190806040019060028060200260405190810160405280929190826002602002808284378201915050505050919080604001906002806020026040519081016040528092919082600260200280828437820191505050505091908060400190600280602002604051908101604052809291908260026020028082843782019150505050509190806040019060028060200260405190810160405280929190826002602002808284378201915050505050919080604001906002806020026040519081016040528092919082600260200280828437820191505050505091905050610db3565b60405180826000191660001916815260200191505060405180910390f35b341561028157600080fd5b61030a600480806040019060028060200260405190810160405280929190826002602002808284378201915050505050919080604001906002806020026040519081016040528092919082600260200280828437820191505050505091908035906020019091908035906020019091908035906020019091908035906020019091905050610f94565b6040518083600a60200280838360005b8381101561033557808201518184015260208101905061031a565b5050505090500182600460200280838360005b83811015610363578082015181840152602081019050610348565b505050509050019250505060405180910390f35b341561038257600080fd5b6104026004808035906020019091908035906020019091908035906020019091908060400190600280602002604051908101604052809291908260026020028082843782019150505050509190806040019060028060200260405190810160405280929190826002602002808284378201915050505050919050506115fa565b6040518083600260200280838360005b8381101561042d578082015181840152602081019050610412565b505050509050018281526020019250505060405180910390f35b341561045257600080fd5b6104ec60048080359060200190919080604001906002806020026040519081016040528092919082600260200280828437820191505050505091908060400190600280602002604051908101604052809291908260026020028082843782019150505050509190806040019060028060200260405190810160405280929190826002602002808284378201915050505050919050506118cb565b604051808215151515815260200191505060405180910390f35b341561051157600080fd5b6105ab6004808060400190600280602002604051908101604052809291908260026020028082843782019150505050509190806040019060028060200260405190810160405280929190826002602002808284378201915050505050919080359060200190919080604001906002806020026040519081016040528092919082600260200280828437820191505050505091905050611b74565b6040518082600260200280838360005b838110156105d65780820151818401526020810190506105bb565b5050505090500191505060405180910390f35b34156105f457600080fd5b6106136004808035906020019091908035906020019091905050611d61565b6040518082815260200191505060405180910390f35b341561063457600080fd5b61067f60048080604001906002806020026040519081016040528092919082600260200280828437820191505050505091908035906020019091908035906020019091905050611dd0565b604051808215151515815260200191505060405180910390f35b34156106a457600080fd5b6106ef60048080359060200190919080359060200190919080604001906002806020026040519081016040528092919082600260200280828437820191505050505091905050611e5b565b6040518082600460200280838360005b8381101561071a5780820151818401526020810190506106ff565b5050505090500191505060405180910390f35b341561073857600080fd5b6107d3600480803590602001909190803590602001909190803590602001909190803590602001909190803590602001909190803590602001909190806040019060028060200260405190810160405280929190826002602002808284378201915050505050919080604001906002806020026040519081016040528092919082600260200280828437820191505050505091905050612144565b6040518085600260200280838360005b838110156107fe5780820151818401526020810190506107e3565b5050505090500184600260200280838360005b8381101561082c578082015181840152602081019050610811565b5050505090500183815260200182815260200194505050505060405180910390f35b341561085957600080fd5b6108786004808035906020019091908035906020019091905050612573565b6040518082600260200280838360005b838110156108a3578082015181840152602081019050610888565b5050505090500191505060405180910390f35b34156108c157600080fd5b610a2e6004808060800190600480602002604051908101604052809291908260046020028082843782019150505050509190806040019060028060200260405190810160405280929190826002602002808284378201915050505050919080604001906002806020026040519081016040528092919082600260200280828437820191505050505091908060400190600280602002604051908101604052809291908260026020028082843782019150505050509190806040019060028060200260405190810160405280929190826002602002808284378201915050505050919080604001906002806020026040519081016040528092919082600260200280828437820191505050505091908060400190600280602002604051908101604052809291908260026020028082843782019150505050509190806040019060028060200260405190810160405280929190826002602002808284378201915050505050919050506126db565b604051808215151515815260200191505060405180910390f35b3415610a5357600080fd5b610adc6004808060400190600280602002604051908101604052809291908260026020028082843782019150505050509190806040019060028060200260405190810160405280929190826002602002808284378201915050505050919080359060200190919080359060200190919080359060200190919080359060200190919050506128f1565b6040518083600a60200280838360005b83811015610b07578082015181840152602081019050610aec565b5050505090500182600460200280838360005b83811015610b35578082015181840152602081019050610b1a565b505050509050019250505060405180910390f35b3415610b5457600080fd5b610bee6004808060400190600280602002604051908101604052809291908260026020028082843782019150505050509190806040019060028060200260405190810160405280929190826002602002808284378201915050505050919080604001906002806020026040519081016040528092919082600260200280828437820191505050505091908035906020019091905050612f13565b6040518082600360200280838360005b83811015610c19578082015181840152602081019050610bfe565b5050505090500191505060405180910390f35b3415610c3757600080fd5b610d06600480806040019060028060200260405190810160405280929190826002602002808284378201915050505050919080604001906002806020026040519081016040528092919082600260200280828437820191505050505091908060400190600280602002604051908101604052809291908260026020028082843782019150505050509190806040019060028060200260405190810160405280929190826002602002808284378201915050505050919080359060200190919080359060200190919050506130ab565b604051808215151515815260200191505060405180910390f35b3415610d2b57600080fd5b610d99600480806040019060028060200260405190810160405280929190826002602002808284378201915050505050919080359060200190919080606001906003806020026040519081016040528092919082600360200280828437820191505050505091905050613518565b604051808215151515815260200191505060405180910390f35b6000338989898989898989604051808a73ffffffffffffffffffffffffffffffffffffffff1673ffffffffffffffffffffffffffffffffffffffff166c0100000000000000000000000002815260140189600460200280838360005b83811015610e2a578082015181840152602081019050610e0f565b5050505090500188600260200280838360005b83811015610e58578082015181840152602081019050610e3d565b5050505090500187600260200280838360005b83811015610e86578082015181840152602081019050610e6b565b5050505090500186600260200280838360005b83811015610eb4578082015181840152602081019050610e99565b5050505090500185600260200280838360005b83811015610ee2578082015181840152602081019050610ec7565b5050505090500184600260200280838360005b83811015610f10578082015181840152602081019050610ef5565b5050505090500183600260200280838360005b83811015610f3e578082015181840152602081019050610f23565b5050505090500182600260200280838360005b83811015610f6c578082015181840152602081019050610f51565b5050505090500199505050505050505050506040518091039020905098975050505050505050565b610f9c615041565b610fa461506a565b610fac615092565b610fb4615092565b610fbc6150b9565b6000610fc8878c613611565b9150610ff4827ffffffffffffffffffffffffffffffffffffffffffffffffffffffffefffffc2f613e40565b81600060038110151561100357fe5b6020020151866000600a8110151561101757fe5b60200201818152505081600160038110151561102f57fe5b6020020151866001600a8110151561104357fe5b6020020181815250506110938a6000600280602002604051908101604052809291908260028015611089576020028201915b815481526020019060010190808311611075575b5050505050613611565b91506110bf827ffffffffffffffffffffffffffffffffffffffffffffffffffffffffefffffc2f613e40565b8160006003811015156110ce57fe5b6020020151866002600a811015156110e257fe5b6020020181815250508160016003811015156110fa57fe5b6020020151866003600a8110151561110e57fe5b6020020181815250506111218a8c613611565b915061114d827ffffffffffffffffffffffffffffffffffffffffffffffffffffffffefffffc2f613e40565b81600060038110151561115c57fe5b6020020151866004600a8110151561117057fe5b60200201818152505081600160038110151561118857fe5b6020020151866005600a8110151561119c57fe5b6020020181815250506111ec8960006002806020026040519081016040528092919082600280156111e2576020028201915b8154815260200190600101908083116111ce575b5050505050613611565b9150611201826111fc8a8f613611565b613ee9565b915061122d827ffffffffffffffffffffffffffffffffffffffffffffffffffffffffefffffc2f613e40565b81600060038110151561123c57fe5b6020020151866006600a8110151561125057fe5b60200201818152505081600160038110151561126857fe5b6020020151866007600a8110151561127c57fe5b60200201818152505060008060028110151561129457fe5b01548460006002811015156112a557fe5b602002018181525050600060016002811015156112be57fe5b01547ffffffffffffffffffffffffffffffffffffffffffffffffffffffffefffffc2f038460016002811015156112f157fe5b602002018181525050856000600a8110151561130957fe5b602002015183600060028110151561131d57fe5b602002018181525050856001600a8110151561133557fe5b602002015183600160028110151561134957fe5b60200201818152505061136e61135f8985613611565b6113698a87613611565b613ee9565b915061138361137d8a8d613611565b83613ee9565b91506113af827ffffffffffffffffffffffffffffffffffffffffffffffffffffffffefffffc2f613e40565b8160006003811015156113be57fe5b6020020151866008600a811015156113d257fe5b6020020181815250508160016003811015156113ea57fe5b6020020151866009600a811015156113fe57fe5b6020020181815250506002338d88600060405160200152604051808473ffffffffffffffffffffffffffffffffffffffff1673ffffffffffffffffffffffffffffffffffffffff166c0100000000000000000000000002815260140183600260200280838360005b83811015611481578082015181840152602081019050611466565b5050505090500182600a60200280838360005b838110156114af578082015181840152602081019050611494565b50505050905001935050505060206040518083038160008661646e5a03f115156114d857600080fd5b50506040518051905090506114f1816001900489611d61565b82600060038110151561150057fe5b6020020181815250506115498a7ffffffffffffffffffffffffffffffffebaaedce6af48a03bbfd25e8cd036414184600060038110151561153d57fe5b60200201518a09611d61565b82600160038110151561155857fe5b60200201818152505081600060038110151561157057fe5b602002015185600060048110151561158457fe5b6020020181815250508785600160048110151561159d57fe5b6020020181815250508160016003811015156115b557fe5b60200201518560026004811015156115c957fe5b602002018181525050888560036004811015156115e257fe5b60200201818152505050505050965096945050505050565b611602615092565b600061160c6150b9565b600080600061161a88614337565b151561162557600080fd5b61162e87614337565b151561163957600080fd5b61167f8960028080602002604051908101604052809291908260028015611675576020028201915b815481526020019060010190808311611661575b5050505050613611565b93506116ab847ffffffffffffffffffffffffffffffffffffffffffffffffffffffffefffffc2f613e40565b8360006003811015156116ba57fe5b60200201518660006002811015156116ce57fe5b6020020181815250508360016003811015156116e657fe5b60200201518660016002811015156116fa57fe5b602002018181525050600233600060028b8b8b600060405160200152604051808773ffffffffffffffffffffffffffffffffffffffff1673ffffffffffffffffffffffffffffffffffffffff166c01000000000000000000000000028152601401866002801561177f576020028201915b81548152602001906001019080831161176b575b505085600280156117a5576020028201915b815481526020019060010190808311611791575b505084600260200280838360005b838110156117ce5780820151818401526020810190506117b3565b5050505090500183600260200280838360005b838110156117fc5780820151818401526020810190506117e1565b5050505090500182600260200280838360005b8381101561182a57808201518184015260208101905061180f565b50505050905001965050505050505060206040518083038160008661646e5a03f1151561185657600080fd5b50506040518051905060019004925061186f8b8b611d61565b91507ffffffffffffffffffffffffffffffffebaaedce6af48a03bbfd25e8cd036414183830990507ffffffffffffffffffffffffffffffffebaaedce6af48a03bbfd25e8cd03641418982089450505050509550959350505050565b6000806118d6615092565b6118de6150b9565b6118e787614337565b15156118f257600080fd5b6118fb86614337565b151561190657600080fd5b61190f85614337565b151561191a57600080fd5b600233600060028a8a8a600060405160200152604051808773ffffffffffffffffffffffffffffffffffffffff1673ffffffffffffffffffffffffffffffffffffffff166c010000000000000000000000000281526014018660028015611996576020028201915b815481526020019060010190808311611982575b505085600280156119bc576020028201915b8154815260200190600101908083116119a8575b505084600260200280838360005b838110156119e55780820151818401526020810190506119ca565b5050505090500183600260200280838360005b83811015611a135780820151818401526020810190506119f8565b5050505090500182600260200280838360005b83811015611a41578082015181840152602081019050611a26565b50505050905001965050505050505060206040518083038160008661646e5a03f11515611a6d57600080fd5b505060405180519050600190049250611a8887878588611b74565b9150611ad08860028080602002604051908101604052809291908260028015611ac6576020028201915b815481526020019060010190808311611ab2575b5050505050613611565b9050611afc817ffffffffffffffffffffffffffffffffffffffffffffffffffffffffefffffc2f613e40565b806000600381101515611b0b57fe5b6020020151826000600281101515611b1f57fe5b6020020151148015611b565750806001600381101515611b3b57fe5b6020020151826001600281101515611b4f57fe5b6020020151145b15611b645760019350611b69565b600093505b505050949350505050565b611b7c615092565b611b846150b9565b611b8c6150b9565b611b94615092565b611b9c6150b9565b876000600281101515611bab57fe5b6020020151846000600381101515611bbf57fe5b602002018181525050876001600281101515611bd757fe5b60200201517ffffffffffffffffffffffffffffffffffffffffffffffffffffffffefffffc2f03846001600381101515611c0d57fe5b6020020181815250506001846002600381101515611c2757fe5b602002018181525050611c3a848a614349565b9250611c66837ffffffffffffffffffffffffffffffffffffffffffffffffffffffffefffffc2f613e40565b826000600381101515611c7557fe5b6020020151826000600281101515611c8957fe5b602002018181525050826001600381101515611ca157fe5b6020020151826001600281101515611cb557fe5b602002018181525050611cd1611ccb8884613611565b87614349565b9050611cfd817ffffffffffffffffffffffffffffffffffffffffffffffffffffffffefffffc2f613e40565b806000600381101515611d0c57fe5b6020020151856000600281101515611d2057fe5b602002018181525050806001600381101515611d3857fe5b6020020151856001600281101515611d4c57fe5b60200201818152505050505050949350505050565b600080600083851115611d7657849150611d9c565b7ffffffffffffffffffffffffffffffffebaaedce6af48a03bbfd25e8cd0364141850191505b7ffffffffffffffffffffffffffffffffebaaedce6af48a03bbfd25e8cd03641416000858403089050809250505092915050565b6000611dda615092565b611de48484612573565b9050806000600281101515611df557fe5b6020020151856000600281101515611e0957fe5b6020020151148015611e405750806001600281101515611e2557fe5b6020020151856001600281101515611e3957fe5b6020020151145b15611e4e5760019150611e53565b600091505b509392505050565b611e6361506a565b611e6b615092565b611e736150b9565b6000806000807f79be667ef9dcbbac55a06295ce870b07029bfcdb2dce28d959f2815b16f81798866000600281101515611ea957fe5b6020020181815250507f483ada7726a3c4655da4fbfc0e1108a8fd17b448a68554199c47d08ffb10d4b8866001600281101515611ee257fe5b602002018181525050611ef488614337565b1515611eff57600080fd5b611f098987613611565b9450611f35857ffffffffffffffffffffffffffffffffffffffffffffffffffffffffefffffc2f613e40565b6002337f79be667ef9dcbbac55a06295ce870b07029bfcdb2dce28d959f2815b16f817987f483ada7726a3c4655da4fbfc0e1108a8fd17b448a68554199c47d08ffb10d4b88b89600060405160200152604051808673ffffffffffffffffffffffffffffffffffffffff1673ffffffffffffffffffffffffffffffffffffffff166c0100000000000000000000000002815260140185815260200184815260200183600260200280838360005b83811015611ffd578082015181840152602081019050611fe2565b5050505090500182600360200280838360005b8381101561202b578082015181840152602081019050612010565b505050509050019550505050505060206040518083038160008661646e5a03f1151561205657600080fd5b5050604051805190509350836001900492507ffffffffffffffffffffffffffffffffebaaedce6af48a03bbfd25e8cd0364141838b0991506120988983611d61565b9050808760006004811015156120aa57fe5b6020020181815250508460006003811015156120c257fe5b60200201518760016004811015156120d657fe5b6020020181815250508460016003811015156120ee57fe5b602002015187600260048110151561210257fe5b60200201818152505084600260038110151561211a57fe5b602002015187600360048110151561212e57fe5b6020020181815250505050505050509392505050565b61214c615092565b612154615092565b60008061215f6150b9565b60008061216b89614337565b151561217657600080fd5b61217f88614337565b151561218a57600080fd5b6121d18b60006002806020026040519081016040528092919082600280156121c7576020028201915b8154815260200190600101908083116121b3575b5050505050613611565b92506121fd837ffffffffffffffffffffffffffffffffffffffffffffffffffffffffefffffc2f613e40565b82600060038110151561220c57fe5b602002015187600060028110151561222057fe5b60200201818152505082600160038110151561223857fe5b602002015187600160028110151561224c57fe5b60200201818152505061229b8a60028080602002604051908101604052809291908260028015612291576020028201915b81548152602001906001019080831161227d575b5050505050613611565b92506122c7837ffffffffffffffffffffffffffffffffffffffffffffffffffffffffefffffc2f613e40565b8260006003811015156122d657fe5b60200201518660006002811015156122ea57fe5b60200201818152505082600160038110151561230257fe5b602002015186600160028110151561231657fe5b602002018181525050600233600060028c8c8c8c600060405160200152604051808873ffffffffffffffffffffffffffffffffffffffff1673ffffffffffffffffffffffffffffffffffffffff166c01000000000000000000000000028152601401876002801561239c576020028201915b815481526020019060010190808311612388575b505086600280156123c2576020028201915b8154815260200190600101908083116123ae575b505085600260200280838360005b838110156123eb5780820151818401526020810190506123d0565b5050505090500184600260200280838360005b838110156124195780820151818401526020810190506123fe565b5050505090500183600260200280838360005b8381101561244757808201518184015260208101905061242c565b5050505090500182600260200280838360005b8381101561247557808201518184015260208101905061245a565b5050505090500197505050505050505060206040518083038160008661646e5a03f115156124a257600080fd5b5050604051805190506001900491506124bb8f8f611d61565b94507ffffffffffffffffffffffffffffffffebaaedce6af48a03bbfd25e8cd036414182860990507ffffffffffffffffffffffffffffffffebaaedce6af48a03bbfd25e8cd03641418b820894506125138d8d611d61565b93507ffffffffffffffffffffffffffffffffebaaedce6af48a03bbfd25e8cd036414182850990507ffffffffffffffffffffffffffffffffebaaedce6af48a03bbfd25e8cd03641418a8208935050505098509850985098945050505050565b61257b615092565b6125836150b9565b61258b6150b9565b6125936150b9565b61259b615092565b6125e28660006002806020026040519081016040528092919082600280156125d8576020028201915b8154815260200190600101908083116125c4575b5050505050613611565b935061262a8760028080602002604051908101604052809291908260028015612620576020028201915b81548152602001906001019080831161260c575b5050505050613611565b92506126368484613ee9565b9150612662827ffffffffffffffffffffffffffffffffffffffffffffffffffffffffefffffc2f613e40565b81600060038110151561267157fe5b602002015181600060028110151561268557fe5b60200201818152505081600160038110151561269d57fe5b60200201518160016002811015156126b157fe5b6020020181815250506126c381614337565b15156126ce57600080fd5b8094505050505092915050565b600073__Utils_________________________________63c07bbc878a8a8a8a8a8a8a8a6000604051602001526040518963ffffffff167c01000000000000000000000000000000000000000000000000000000000281526004018089600460200280838360005b8381101561275e578082015181840152602081019050612743565b5050505090500188600260200280838360005b8381101561278c578082015181840152602081019050612771565b5050505090500187600260200280838360005b838110156127ba57808201518184015260208101905061279f565b5050505090500186600260200280838360005b838110156127e85780820151818401526020810190506127cd565b5050505090500185600260200280838360005b838110156128165780820151818401526020810190506127fb565b5050505090500184600260200280838360005b83811015612844578082015181840152602081019050612829565b5050505090500183600260200280838360005b83811015612872578082015181840152602081019050612857565b5050505090500182600260200280838360005b838110156128a0578082015181840152602081019050612885565b505050509050019850505050505050505060206040518083038186803b15156128c857600080fd5b6102c65a03f415156128d957600080fd5b50505060405180519050905098975050505050505050565b6128f9615041565b61290161506a565b6129096150b9565b612911615092565b60008061291e878c613611565b935061296784600060028060200260405190810160405280929190826002801561295d576020028201915b815481526020019060010190808311612949575b5050505050614760565b612991847ffffffffffffffffffffffffffffffffffffffffffffffffffffffffefffffc2f613e40565b8360006003811015156129a057fe5b6020020151866000600a811015156129b457fe5b6020020181815250508360016003811015156129cc57fe5b6020020151866001600a811015156129e057fe5b602002018181525050612a30896000600280602002604051908101604052809291908260028015612a26576020028201915b815481526020019060010190808311612a12575b5050505050613611565b9350612a4584612a408a8f613611565b613ee9565b9350612a71847ffffffffffffffffffffffffffffffffffffffffffffffffffffffffefffffc2f613e40565b836000600381101515612a8057fe5b6020020151866002600a81101515612a9457fe5b602002018181525050836001600381101515612aac57fe5b6020020151866003600a81101515612ac057fe5b602002018181525050612ad3898c613611565b9350856000600a81101515612ae457fe5b6020020151836000600281101515612af857fe5b602002018181525050856001600a81101515612b1057fe5b6020020151836001600281101515612b2457fe5b602002018181525050612b4084612b3b8a86613611565b613ee9565b9350612b6c847ffffffffffffffffffffffffffffffffffffffffffffffffffffffffefffffc2f613e40565b836000600381101515612b7b57fe5b6020020151866004600a81101515612b8f57fe5b602002018181525050836001600381101515612ba757fe5b6020020151866005600a81101515612bbb57fe5b602002018181525050612c0b8a6000600280602002604051908101604052809291908260028015612c01576020028201915b815481526020019060010190808311612bed575b5050505050613611565b9350612c37847ffffffffffffffffffffffffffffffffffffffffffffffffffffffffefffffc2f613e40565b836000600381101515612c4657fe5b6020020151866006600a81101515612c5a57fe5b602002018181525050836001600381101515612c7257fe5b6020020151866007600a81101515612c8657fe5b602002018181525050612c998a8c613611565b9350612cc5847ffffffffffffffffffffffffffffffffffffffffffffffffffffffffefffffc2f613e40565b836000600381101515612cd457fe5b6020020151866008600a81101515612ce857fe5b602002018181525050836001600381101515612d0057fe5b6020020151866009600a81101515612d1457fe5b6020020181815250506002338d88600060405160200152604051808473ffffffffffffffffffffffffffffffffffffffff1673ffffffffffffffffffffffffffffffffffffffff166c0100000000000000000000000002815260140183600260200280838360005b83811015612d97578082015181840152602081019050612d7c565b5050505090500182600a60200280838360005b83811015612dc5578082015181840152602081019050612daa565b50505050905001935050505060206040518083038160008661646e5a03f11515612dee57600080fd5b505060405180519050915081600190049050612e0a8189611d61565b836000600281101515612e1957fe5b602002018181525050612e628a7ffffffffffffffffffffffffffffffffebaaedce6af48a03bbfd25e8cd0364141856000600281101515612e5657fe5b60200201518a09611d61565b836001600281101515612e7157fe5b60200201818152505087856000600481101515612e8a57fe5b602002018181525050826000600281101515612ea257fe5b6020020151856001600481101515612eb657fe5b60200201818152505088856002600481101515612ecf57fe5b602002018181525050826001600281101515612ee757fe5b6020020151856003600481101515612efb57fe5b60200201818152505050505050965096945050505050565b612f1b6150b9565b612f236150b9565b612f2b6150b9565b612f33615092565b612f3b6150b9565b876000600281101515612f4a57fe5b6020020151846000600381101515612f5e57fe5b602002018181525050876001600281101515612f7657fe5b60200201517ffffffffffffffffffffffffffffffffffffffffffffffffffffffffefffffc2f03846001600381101515612fac57fe5b6020020181815250506001846002600381101515612fc657fe5b602002018181525050612fd9848a614349565b9250613005837ffffffffffffffffffffffffffffffffffffffffffffffffffffffffefffffc2f613e40565b82600060038110151561301457fe5b602002015182600060028110151561302857fe5b60200201818152505082600160038110151561304057fe5b602002015182600160028110151561305457fe5b6020020181815250506130678683613611565b90506130738188614349565b945061309f857ffffffffffffffffffffffffffffffffffffffffffffffffffffffffefffffc2f613e40565b50505050949350505050565b6000806130b66150b9565b6130be6150b9565b6130c66150b9565b6130ce6150b9565b6130d78c614337565b15156130e257600080fd5b6130eb8b614337565b15156130f657600080fd5b6130ff8a614337565b151561310a57600080fd5b61311389614337565b151561311e57600080fd5b600233600060028f8f8f8f600060405160200152604051808873ffffffffffffffffffffffffffffffffffffffff1673ffffffffffffffffffffffffffffffffffffffff166c01000000000000000000000000028152601401876002801561319b576020028201915b815481526020019060010190808311613187575b505086600280156131c1576020028201915b8154815260200190600101908083116131ad575b505085600260200280838360005b838110156131ea5780820151818401526020810190506131cf565b5050505090500184600260200280838360005b838110156132185780820151818401526020810190506131fd565b5050505090500183600260200280838360005b8381101561324657808201518184015260208101905061322b565b5050505090500182600260200280838360005b83811015613274578082015181840152602081019050613259565b5050505090500197505050505050505060206040518083038160008661646e5a03f115156132a157600080fd5b5050604051805190506001900494506132bc8c8c8b88612f13565b935061330487600280806020026040519081016040528092919082600280156132fa576020028201915b8154815260200190600101908083116132e6575b5050505050613611565b9250613330837ffffffffffffffffffffffffffffffffffffffffffffffffffffffffefffffc2f613e40565b83600060038110151561333f57fe5b602002015183600060038110151561335357fe5b60200201511415801561338c575083600160038110151561337057fe5b602002015183600160038110151561338457fe5b602002015114155b156135045761339b848b614349565b91506133c7827ffffffffffffffffffffffffffffffffffffffffffffffffffffffffefffffc2f613e40565b8160006003811015156133d657fe5b60200201518460006003811015156133ea57fe5b60200201818152505081600160038110151561340257fe5b602002015184600160038110151561341657fe5b60200201818152505061346f61346989600060028060200260405190810160405280929190826002801561345f576020028201915b81548152602001906001019080831161344b575b5050505050613611565b84613ee9565b905061349b817ffffffffffffffffffffffffffffffffffffffffffffffffffffffffefffffc2f613e40565b8360006003811015156134aa57fe5b60200201518160006003811015156134be57fe5b60200201511480156134f557508360016003811015156134da57fe5b60200201518160016003811015156134ee57fe5b6020020151145b156135035760019550613509565b5b600095505b50505050509695505050505050565b600073__Utils_________________________________63fb3f0d6f8585856000604051602001526040518463ffffffff167c01000000000000000000000000000000000000000000000000000000000281526004018084600260200280838360005b8381101561359657808201518184015260208101905061357b565b5050505090500183815260200182600360200280838360005b838110156135ca5780820151818401526020810190506135af565b50505050905001935050505060206040518083038186803b15156135ed57600080fd5b6102c65a03f415156135fe57600080fd5b5050506040518051905090509392505050565b6136196150b9565b60008060006136266150e1565b61362e6150b9565b613636615110565b60008060007ffffffffffffffffffffffffffffffffffffffffffffffffffffffffefffffc2f985060008c141561366c57613e31565b6000604051985061020089016040525b8c156136b55760018d16156136a45760208d06905080888a015360206010821102818e03019c505b60028d049c5060018801975061367c565b508797506060604051908101604052808c60006002811015156136d457fe5b602002015181526020018c60016002811015156136ed57fe5b60200201518152602001600181525086600060088110151561370b57fe5b602002018190525061372f86600060088110151561372557fe5b6020020151614b96565b945061373b858c614349565b86600160088110151561374a57fe5b602002018190525061376f8587600160088110151561376557fe5b6020020151613ee9565b86600260088110151561377e57fe5b60200201819052506137a38587600260088110151561379957fe5b6020020151613ee9565b8660036008811015156137b257fe5b60200201819052506137d7858760036008811015156137cd57fe5b6020020151613ee9565b8660046008811015156137e657fe5b602002018190525061380b8587600460088110151561380157fe5b6020020151613ee9565b86600560088110151561381a57fe5b602002018190525061383f8587600560088110151561383557fe5b6020020151613ee9565b86600660088110151561384e57fe5b60200201819052506138738587600660088110151561386957fe5b6020020151613ee9565b86600760088110151561388257fe5b602002018190525085600160088110151561389957fe5b602002015160026003811015156138ac57fe5b60200201518460006010811015156138c057fe5b602002018181525050888460006010811015156138d957fe5b60200201518760026008811015156138ed57fe5b6020020151600260038110151561390057fe5b60200201510984600160108110151561391557fe5b6020020181815250508884600160108110151561392e57fe5b602002015187600360088110151561394257fe5b6020020151600260038110151561395557fe5b60200201510984600260108110151561396a57fe5b6020020181815250508884600260108110151561398357fe5b602002015187600460088110151561399757fe5b602002015160026003811015156139aa57fe5b6020020151098460036010811015156139bf57fe5b602002018181525050888460036010811015156139d857fe5b60200201518760056008811015156139ec57fe5b602002015160026003811015156139ff57fe5b602002015109846004601081101515613a1457fe5b60200201818152505088846004601081101515613a2d57fe5b6020020151876006600881101515613a4157fe5b60200201516002600381101515613a5457fe5b602002015109846005601081101515613a6957fe5b60200201818152505088846005601081101515613a8257fe5b6020020151876007600881101515613a9657fe5b60200201516002600381101515613aa957fe5b602002015109846006601081101515613abe57fe5b602002018181525050613ae4846006601081101515613ad957fe5b60200201518a614cc7565b846007601081101515613af357fe5b602002018181525050836007601081101515613b0b57fe5b6020020151846008601081101515613b1f57fe5b60200201818152505088846008601081101515613b3857fe5b6020020151856005601081101515613b4c57fe5b60200201510984600f601081101515613b6157fe5b602002018181525050600692505b600283101515613c245788846008601081101515613b8957fe5b60200201518760018601600881101515613b9f57fe5b60200201516002600381101515613bb257fe5b602002015109846008601081101515613bc757fe5b60200201818152505088846008601081101515613be057fe5b60200201518560028603601081101515613bf657fe5b6020020151098484600801601081101515613c0d57fe5b602002018181525050828060019003935050613b6f565b88846008601081101515613c3457fe5b6020020151876002600881101515613c4857fe5b60200201516002600381101515613c5b57fe5b602002015109846009601081101515613c7057fe5b602002018181525050600092505b6007831015613cf757613cea8660018501600881101515613c9b57fe5b60200201518560098601601081101515613cb157fe5b60200201518b8760098801601081101515613cc857fe5b60200201518860098901601081101515613cde57fe5b6020020151098c614d73565b8280600101935050613c7e565b5b6000871115613e30578680600190039750508688015160001a9150613d1c8a614df4565b6010821115613da657600282601f03811515613d3457fe5b049050613da18a60408051908101604052808985600881101515613d5457fe5b60200201516000600381101515613d6757fe5b602002015181526020018985600881101515613d7f57fe5b60200201516001600381101515613d9257fe5b60200201518d03815250614760565b613e2b565b6000821115613e2a57600260018303811515613dbe57fe5b049050613e298a60408051908101604052808985600881101515613dde57fe5b60200201516000600381101515613df157fe5b602002015181526020018985600881101515613e0957fe5b60200201516001600381101515613e1c57fe5b6020020151815250614760565b5b5b613cf8565b5b50505050505050505092915050565b600080613e60846002600381101515613e5557fe5b602002015184614cc7565b91508282830990508281856000600381101515613e7957fe5b602002015109846000600381101515613e8e57fe5b6020020181815250508283828409856001600381101515613eab57fe5b602002015109846001600381101515613ec057fe5b6020020181815250506001846002600381101515613eda57fe5b60200201818152505050505050565b613ef16150b9565b6000613efb61506a565b613f0361506a565b6000806000806000808b6002600381101515613f1b57fe5b60200201511415613f2e57899850614329565b60008a6002600381101515613f3f57fe5b60200201511415613f52578a9850614329565b7ffffffffffffffffffffffffffffffffffffffffffffffffffffffffefffffc2f9750878b6002600381101515613f8557fe5b60200201518c6002600381101515613f9957fe5b602002015109876000600481101515613fae57fe5b60200201818152505087876000600481101515613fc757fe5b60200201518c6002600381101515613fdb57fe5b602002015109876001600481101515613ff057fe5b602002018181525050878a600260038110151561400957fe5b60200201518b600260038110151561401d57fe5b60200201510987600260048110151561403257fe5b6020020181815250508787600260048110151561404b57fe5b60200201518b600260038110151561405f57fe5b60200201510987600360048110151561407457fe5b6020020181815250506080604051908101604052808989600260048110151561409957fe5b60200201518e60006003811015156140ad57fe5b6020020151098152602001898960036004811015156140c857fe5b60200201518e60016003811015156140dc57fe5b6020020151098152602001898960006004811015156140f757fe5b60200201518d600060038110151561410b57fe5b60200201510981526020018989600160048110151561412657fe5b60200201518d600160038110151561413a57fe5b602002015109815250955085600260048110151561415457fe5b602002015186600060048110151561416857fe5b602002015114156141b75785600360048110151561418257fe5b602002015186600160048110151561419657fe5b60200201511415156141a757614329565b6141b08b614b96565b9850614329565b878660006004811015156141c757fe5b602002015189038760026004811015156141dd57fe5b6020020151089450878660016004811015156141f557fe5b6020020151890387600360048110151561420b57fe5b602002015108935087858609925087858409915087828903898687090890508788898589600060048110151561423d57fe5b6020020151096002098903820890508089600060038110151561425c57fe5b6020020181815250508788828a038a868a600060048110151561427b57fe5b60200201510908850989600160038110151561429357fe5b6020020181815250508788838860016004811015156142ae57fe5b60200201510989038a60016003811015156142c557fe5b6020020151088960016003811015156142da57fe5b60200201818152505087888b60026003811015156142f457fe5b60200201518d600260038110151561430857fe5b602002015109860989600260038110151561431f57fe5b6020020181815250505b505050505050505092915050565b600061434282614f1b565b9050919050565b6143516150b9565b600061435b615092565b61436361506a565b6000806000806000808b600260038110151561437b57fe5b602002015114156143d0576060604051908101604052808b60006002811015156143a157fe5b602002015181526020018b60016002811015156143ba57fe5b6020020151815260200160018152509850614752565b60008a60016002811015156143e157fe5b602002015114156143f4578a9850614752565b7ffffffffffffffffffffffffffffffffffffffffffffffffffffffffefffffc2f9750878b600260038110151561442757fe5b60200201518c600260038110151561443b57fe5b60200201510987600060028110151561445057fe5b6020020181815250508787600060028110151561446957fe5b60200201518c600260038110151561447d57fe5b60200201510987600160028110151561449257fe5b6020020181815250506080604051908101604052808c60006003811015156144b657fe5b602002015181526020018c60016003811015156144cf57fe5b60200201518152602001898960006002811015156144e957fe5b60200201518d60006002811015156144fd57fe5b60200201510981526020018989600160028110151561451857fe5b60200201518d600160028110151561452c57fe5b602002015109815250955085600260048110151561454657fe5b602002015186600060048110151561455a57fe5b602002015114156145f65785600360048110151561457457fe5b602002015186600160048110151561458857fe5b60200201511415156145e75760008b60006003811015156145a557fe5b60200201818152505060008b60016003811015156145bf57fe5b60200201818152505060008b60026003811015156145d957fe5b602002018181525050614752565b6145f08b614b96565b50614752565b8786600060048110151561460657fe5b6020020151890387600260048110151561461c57fe5b60200201510894508786600160048110151561463457fe5b6020020151890387600360048110151561464a57fe5b602002015108935087858609925087858409915087828903898687090890508788898589600060048110151561467c57fe5b6020020151096002098903820890508089600060038110151561469b57fe5b6020020181815250508788828a038a868a60006004811015156146ba57fe5b6020020151090885098960016003811015156146d257fe5b6020020181815250508788838860016004811015156146ed57fe5b60200201510989038a600160038110151561470457fe5b60200201510889600160038110151561471957fe5b602002018181525050878b600260038110151561473257fe5b6020020151860989600260038110151561474857fe5b6020020181815250505b505050505050505092915050565b600061476a615092565b61477261506a565b6000806000806000808a600160038110151561478a57fe5b6020020151141561480c578860006002811015156147a457fe5b60200201518a60006003811015156147b857fe5b6020020181815250508860016002811015156147d057fe5b60200201518a60016003811015156147e457fe5b60200201818152505060018a60026003811015156147fe57fe5b602002018181525050614b8a565b600089600160028110151561481d57fe5b6020020151141561482d57614b8a565b7ffffffffffffffffffffffffffffffffffffffffffffffffffffffffefffffc2f9750878a600260038110151561486057fe5b60200201518b600260038110151561487457fe5b60200201510987600060028110151561488957fe5b602002018181525050878760006002811015156148a257fe5b60200201518b60026003811015156148b657fe5b6020020151098760016002811015156148cb57fe5b6020020181815250506080604051908101604052808b60006003811015156148ef57fe5b602002015181526020018b600160038110151561490857fe5b602002015181526020018989600060028110151561492257fe5b60200201518c600060028110151561493657fe5b60200201510981526020018989600160028110151561495157fe5b60200201518c600160028110151561496557fe5b602002015109815250955085600260048110151561497f57fe5b602002015186600060048110151561499357fe5b60200201511415614a2e578560036004811015156149ad57fe5b60200201518660016004811015156149c157fe5b6020020151141515614a205760008a60006003811015156149de57fe5b60200201818152505060008a60016003811015156149f857fe5b60200201818152505060008a6002600381101515614a1257fe5b602002018181525050614b8a565b614a298a614df4565b614b8a565b87866000600481101515614a3e57fe5b60200201518903876002600481101515614a5457fe5b602002015108945087866001600481101515614a6c57fe5b60200201518903876003600481101515614a8257fe5b6020020151089350878586099250878584099150878289038986870908905087888985896000600481101515614ab457fe5b602002015109600209890382089050808a6000600381101515614ad357fe5b6020020181815250508788828a038a868a6000600481101515614af257fe5b6020020151090885098a6001600381101515614b0a57fe5b602002018181525050878883886001600481101515614b2557fe5b60200201510989038b6001600381101515614b3c57fe5b6020020151088a6001600381101515614b5157fe5b602002018181525050878a6002600381101515614b6a57fe5b602002015186098a6002600381101515614b8057fe5b6020020181815250505b50505050505050505050565b614b9e6150b9565b60008060008060008060007ffffffffffffffffffffffffffffffffffffffffffffffffffffffffefffffc2f96506000896002600381101515614bdd57fe5b60200201511415614bed57614cbb565b886000600381101515614bfc57fe5b60200201519550886001600381101515614c1257fe5b602002015194508685860993508687858809600409925086878788096003099150868784850888038884850908905080886000600381101515614c5157fe5b60200201818152505086878886870960080988038889848b038708850908886001600381101515614c7e57fe5b60200201818152505086878a6002600381101515614c9857fe5b60200201518709600209886002600381101515614cb157fe5b6020020181815250505b50505050505050919050565b6000806000806000806000881480614cde57508688145b80614ce95750600087145b15614cf357600080fd5b86881115614d0a578688811515614d0657fe5b0697505b600193508692508791505b600082141515614d4e578183811515614d2a57fe5b04905083848202860383848402860380955081965082975083985050505050614d15565b6000851215614d64578460000387039550614d68565b8495505b505050505092915050565b8082856000600381101515614d8457fe5b602002015109846000600381101515614d9957fe5b6020020181815250508081838509856001600381101515614db657fe5b602002015109846001600381101515614dcb57fe5b6020020181815250506001846002600381101515614de557fe5b60200201818152505050505050565b60008060008060008060007ffffffffffffffffffffffffffffffffffffffffffffffffffffffffefffffc2f96506000886002600381101515614e3357fe5b60200201511415614e4357614f11565b876000600381101515614e5257fe5b60200201519550876001600381101515614e6857fe5b602002015194508685860993508687858809600409925086878788096003099150868784850888038884850908905080886000600381101515614ea757fe5b60200201818152505086878886870960080988038889848b038708850908886001600381101515614ed457fe5b6020020181815250508687896002600381101515614eee57fe5b60200201518709600209886002600381101515614f0757fe5b6020020181815250505b5050505050505050565b6000806000807ffffffffffffffffffffffffffffffffffffffffffffffffffffffffefffffc2f9250846000600281101515614f5357fe5b602002015160001480614f78575082856000600281101515614f7157fe5b6020020151145b80614f965750846001600281101515614f8d57fe5b60200201516000145b80614fb3575082856001600281101515614fac57fe5b6020020151145b15614fc15760009350615039565b82856001600281101515614fd157fe5b6020020151866001600281101515614fe557fe5b60200201510991508260078487600060028110151561500057fe5b60200201518689600060028110151561501557fe5b60200201518a600060028110151561502957fe5b6020020151090908905080821493505b505050919050565b61014060405190810160405280600a905b60008152602001906001900390816150525790505090565b6080604051908101604052806004905b600081526020019060019003908161507a5790505090565b60408051908101604052806002905b60008152602001906001900390816150a15790505090565b6060604051908101604052806003905b60008152602001906001900390816150c95790505090565b610300604051908101604052806008905b6150fa615139565b8152602001906001900390816150f25790505090565b610200604051908101604052806010905b60008152602001906001900390816151215790505090565b6060604051908101604052806003905b600081526020019060019003908161514957905050905600a165627a7a723058207a31d0b9f88ceb43bed5fe33b86f7c8f69060efd847599e931c6834a1d25726c0029",
  "source": "pragma solidity ^0.4.18;\r\n\r\nimport \"./Secp256k1.sol\";\r\nimport \"./Utils.sol\";\r\n\r\n/*\r\n * @title LocalCrypto\r\n * Allow local calls to create and verify zkp.\r\n *  Author: Patrick McCorry\r\n */\r\ncontract LocalCrypto {\r\n\r\n  // Modulus for public keys\r\n  uint constant pp = 0xFFFFFFFFFFFFFFFFFFFFFFFFFFFFFFFFFFFFFFFFFFFFFFFFFFFFFFFEFFFFFC2F;\r\n\r\n  // Base point (generator) G\r\n  uint constant Gx = 0x79BE667EF9DCBBAC55A06295CE870B07029BFCDB2DCE28D959F2815B16F81798;\r\n  uint constant Gy = 0x483ADA7726A3C4655DA4FBFC0E1108A8FD17B448A68554199C47D08FFB10D4B8;\r\n\r\n  // New  point (generator) Y\r\n  uint constant Yx = 98038005178408974007512590727651089955354106077095278304532603697039577112780;\r\n  uint constant Yy = 1801119347122147381158502909947365828020117721497557484744596940174906898953;\r\n\r\n  // Modulus for private keys (sub-group)\r\n  uint constant nn = 0xFFFFFFFFFFFFFFFFFFFFFFFFFFFFFFFEBAAEDCE6AF48A03BBFD25E8CD0364141;\r\n\r\n  uint[2] G;\r\n  uint[2] Y;\r\n\r\n  event Debug(uint x1, uint x2);\r\n\r\n  // 2 round anonymous voting protocol\r\n  // TODO: Right now due to gas limits there is an upper limit\r\n  // on the number of participants that we can have voting...\r\n  // I need to split the functions up... so if they cannot\r\n  // finish their entire workload in 1 transaction, then\r\n  // it does the maximum. This way we can chain transactions\r\n  // to complete the job...\r\n  function LocalCrypto() {\r\n    G[0] = Gx;\r\n    G[1] = Gy;\r\n\r\n    Y[0] = Yx;\r\n    Y[1] = Yy;\r\n  }\r\n\r\n  // Retrieve the commitment hash for a voters vote.\r\n  function commitToVote(uint[4] params, uint[2] xG, uint[2] yG, uint[2] y, uint[2] a1, uint[2] b1, uint[2] a2, uint[2] b2) returns (bytes32) {\r\n    return sha3(msg.sender, params, xG, yG, y, a1, b1, a2, b2);\r\n  }\r\n\r\n  // vG (blinding value), xG (public key), x (what we are proving)\r\n  // c = H(g, g^{v}, g^{x});\r\n  // r = v - xz (mod p);\r\n  // return(r,vG)\r\n  function createZKP(uint x, uint v, uint[2] xG) returns (uint[4] res) {\r\n\r\n      uint[2] memory G;\r\n      G[0] = Gx;\r\n      G[1] = Gy;\r\n\r\n      if(!Secp256k1.isPubKey(xG)) {\r\n          throw; //Must be on the curve!\r\n      }\r\n\r\n      // Get g^{v}\r\n      uint[3] memory vG = Secp256k1._mul(v, G);\r\n\r\n      // Convert to Affine Co-ordinates\r\n      ECCMath.toZ1(vG, pp);\r\n\r\n      // Get c = H(g, g^{x}, g^{v});\r\n      bytes32 b_c = sha256(msg.sender, Gx, Gy, xG, vG);\r\n      uint c = uint(b_c);\r\n\r\n      // Get 'r' the zkp\r\n      uint xc = mulmod(x,c,nn);\r\n\r\n      // v - xc\r\n      uint r = submod(v,xc);\r\n\r\n      res[0] = r;\r\n      res[1] = vG[0];\r\n      res[2] = vG[1];\r\n      res[3] = vG[2];\r\n      return;\r\n  }\r\n\r\n  // a - b = c;\r\n  function submod(uint a, uint b) returns (uint){\r\n      uint a_nn;\r\n\r\n      if(a>b) {\r\n        a_nn = a;\r\n      } else {\r\n        a_nn = a+nn;\r\n      }\r\n\r\n      uint c = addmod(a_nn - b,0,nn);\r\n\r\n      return c;\r\n  }\r\n\r\n  // Parameters xG, r where r = v - xc, and vG.\r\n  // Verify that vG = rG + xcG!\r\n  function verifyZKP(uint[2] xG, uint r, uint[3] vG) returns (bool){\r\n      return Utils.verifyZKP(xG, r, vG);\r\n  }\r\n\r\n  // random 'w', 'r1', 'd1'\r\n  function create1outof2ZKPNoVote(uint[2] xG, uint[2] yG, uint w, uint r2, uint d2, uint x) returns (uint[10] res, uint[4] res2){\r\n      uint[2] memory temp_affine1;\r\n      uint[2] memory temp_affine2;\r\n\r\n      // y = h^{x} * g\r\n      uint[3] memory temp1 = Secp256k1._mul(x,yG);\r\n      ECCMath.toZ1(temp1, pp);\r\n\r\n      // Store y_x and y_y\r\n      res[0] = temp1[0];\r\n      res[1] = temp1[1];\r\n\r\n      // a1 = g^{w}\r\n      temp1 = Secp256k1._mul(w,G);\r\n      ECCMath.toZ1(temp1, pp);\r\n\r\n      // Store a1_x and a1_y\r\n      res[2] = temp1[0];\r\n      res[3] = temp1[1];\r\n\r\n      // b1 = h^{w} (where h = g^{y})\r\n      temp1 = Secp256k1._mul(w, yG);\r\n      ECCMath.toZ1(temp1, pp);\r\n\r\n      res[4] = temp1[0];\r\n      res[5] = temp1[1];\r\n\r\n      // a2 = g^{r2} * x^{d2}\r\n      temp1 = Secp256k1._mul(r2,G);\r\n      temp1 = Secp256k1._add(temp1, Secp256k1._mul(d2,xG));\r\n      ECCMath.toZ1(temp1, pp);\r\n\r\n      res[6] = temp1[0];\r\n      res[7] = temp1[1];\r\n\r\n      // Negate the 'y' co-ordinate of G\r\n      temp_affine1[0] = G[0];\r\n      temp_affine1[1] = pp - G[1];\r\n\r\n      // We need the public key y in affine co-ordinates\r\n      temp_affine2[0] = res[0];\r\n      temp_affine2[1] = res[1];\r\n\r\n      // We should end up with y^{d2} + g^{d2} .... (but we have the negation of g.. so y-g).\r\n      temp1 = Secp256k1._add(Secp256k1._mul(d2,temp_affine2), Secp256k1._mul(d2,temp_affine1));\r\n\r\n      // Now... it is h^{r2} + temp2..\r\n      temp1 = Secp256k1._add(Secp256k1._mul(r2,yG),temp1);\r\n\r\n      // Convert to Affine Co-ordinates\r\n      ECCMath.toZ1(temp1, pp);\r\n\r\n      res[8] = temp1[0];\r\n      res[9] = temp1[1];\r\n\r\n      // Get c = H(i, xG, Y, a1, b1, a2, b2);\r\n      bytes32 b_c = sha256(msg.sender, xG, res);\r\n\r\n      // d1 = c - d2 mod q\r\n      temp1[0] = submod(uint(b_c),d2);\r\n\r\n      // r1 = w - (x * d1)\r\n      temp1[1] = submod(w, mulmod(x,temp1[0],nn));\r\n\r\n      /* We return the following\r\n      * res[0] = y_x;\r\n      * res[1] = y_y;\r\n      * res[2] = a1_x;\r\n      * res[3] = a1_y;\r\n      * res[4] = b1_x;\r\n      * res[5] = b1_y;\r\n      * res[6] = a2_x;\r\n      * res[7] = a2_y;\r\n      * res[8] = b2_x;\r\n      * res[9] = b2_y;\r\n      * res[10] = d1;\r\n      * res[11] = d2;\r\n      * res[12] = r1;\r\n      * res[13] = r2;\r\n      */\r\n      res2[0] = temp1[0];\r\n      res2[1] = d2;\r\n      res2[2] = temp1[1];\r\n      res2[3] = r2;\r\n  }\r\n\r\n  // random 'w', 'r1', 'd1'\r\n  // TODO: Make constant\r\n  function create1outof2ZKPYesVote(uint[2] xG, uint[2] yG, uint w, uint r1, uint d1, uint x) returns (uint[10] res, uint[4] res2) {\r\n      // y = h^{x} * g\r\n      uint[3] memory temp1 = Secp256k1._mul(x,yG);\r\n      Secp256k1._addMixedM(temp1,G);\r\n      ECCMath.toZ1(temp1, pp);\r\n      res[0] = temp1[0];\r\n      res[1] = temp1[1];\r\n\r\n      // a1 = g^{r1} * x^{d1}\r\n      temp1 = Secp256k1._mul(r1,G);\r\n      temp1 = Secp256k1._add(temp1, Secp256k1._mul(d1,xG));\r\n      ECCMath.toZ1(temp1, pp);\r\n      res[2] = temp1[0];\r\n      res[3] = temp1[1];\r\n\r\n      // b1 = h^{r1} * y^{d1} (temp = affine 'y')\r\n      temp1 = Secp256k1._mul(r1,yG);\r\n\r\n      // Setting temp to 'y'\r\n      uint[2] memory temp;\r\n      temp[0] = res[0];\r\n      temp[1] = res[1];\r\n\r\n      temp1= Secp256k1._add(temp1, Secp256k1._mul(d1, temp));\r\n      ECCMath.toZ1(temp1, pp);\r\n      res[4] = temp1[0];\r\n      res[5] = temp1[1];\r\n\r\n      // a2 = g^{w}\r\n      temp1 = Secp256k1._mul(w,G);\r\n      ECCMath.toZ1(temp1, pp);\r\n\r\n      res[6] = temp1[0];\r\n      res[7] = temp1[1];\r\n\r\n      // b2 = h^{w} (where h = g^{y})\r\n      temp1 = Secp256k1._mul(w, yG);\r\n      ECCMath.toZ1(temp1, pp);\r\n      res[8] = temp1[0];\r\n      res[9] = temp1[1];\r\n\r\n      // Get c = H(id, xG, Y, a1, b1, a2, b2);\r\n      // id is H(round, voter_index, voter_address, contract_address)...\r\n      bytes32 b_c = sha256(msg.sender, xG, res);\r\n      uint c = uint(b_c);\r\n\r\n      // d2 = c - d1 mod q\r\n      temp[0] = submod(c,d1);\r\n\r\n      // r2 = w - (x * d2)\r\n      temp[1] = submod(w, mulmod(x,temp[0],nn));\r\n\r\n      /* We return the following\r\n      * res[0] = y_x;\r\n      * res[1] = y_y;\r\n      * res[2] = a1_x;\r\n      * res[3] = a1_y;\r\n      * res[4] = b1_x;\r\n      * res[5] = b1_y;\r\n      * res[6] = a2_x;\r\n      * res[7] = a2_y;\r\n      * res[8] = b2_x;\r\n      * res[9] = b2_y;\r\n      * res[10] = d1;\r\n      * res[11] = d2;\r\n      * res[12] = r1;\r\n      * res[13] = r2;\r\n      */\r\n      res2[0] = d1;\r\n      res2[1] = temp[0];\r\n      res2[2] = r1;\r\n      res2[3] = temp[1];\r\n  }\r\n\r\n  // We verify that the ZKP is of 0 or 1.\r\n  function verify1outof2ZKP(uint[4] params, uint[2] xG, uint[2] yG, uint[2] y, uint[2] a1, uint[2] b1, uint[2] a2, uint[2] b2) returns (bool) {\r\n      return Utils.verify1outof2ZKP(params, xG, yG, y, a1, b1, a2, b2);\r\n    }\r\n\r\n    // Expects random factor 'r' and commitment 'b'. Generators are hard-coded into this contract.\r\n    function createCommitment(uint r, uint b) returns (uint[2]){\r\n\r\n      uint[3] memory bG = Secp256k1._mul(b,G);\r\n\r\n      uint[3] memory rY = Secp256k1._mul(r,Y);\r\n\r\n      uint[3] memory c = Secp256k1._add(bG,rY);\r\n\r\n      ECCMath.toZ1(c, pp);\r\n\r\n      uint[2] memory c_affine;\r\n      c_affine[0] = c[0];\r\n      c_affine[1] = c[1];\r\n\r\n      // Sanity check that everything worked as expected.\r\n      if(!Secp256k1.isPubKey(c_affine)) {\r\n          throw; //Must be on the curve!\r\n      }\r\n\r\n      return c_affine;\r\n    }\r\n\r\n    // We need to re-create the commitment and check that it matches c.\r\n    function openCommitment(uint[2] c, uint r, uint b) returns (bool) {\r\n\r\n      uint[2] memory c_computed = createCommitment(r,b);\r\n\r\n      // Check that the commitments match...\r\n      if(c[0] == c_computed[0] && c[1] == c_computed[1]) {\r\n        return true;\r\n      }\r\n\r\n      return false;\r\n    }\r\n\r\n    // Equality of commitments...\r\n    // 1. Compute t = r3*Y\r\n    // 2. Compute h = H(ID, G, Y, C1, C2, t), where G,Y are generators, C1, C2 are both commitments, and t is random factor.\r\n    // 3. Compute n = h*(r1,r2) + r3.\r\n    // return t,n.\r\n    function createEqualityProof(uint r1, uint r2, uint r3, uint[2] c1, uint[2] c2) returns (uint[2] t, uint n) {\r\n\r\n      if(!Secp256k1.isPubKey(c1)) {\r\n          throw; //Must be on the curve!\r\n      }\r\n\r\n      if(!Secp256k1.isPubKey(c2)) {\r\n          throw; //Must be on the curve!\r\n      }\r\n\r\n      uint[3] memory r3Y = Secp256k1._mul(r3,Y);\r\n      ECCMath.toZ1(r3Y, pp);\r\n\r\n      t[0] = r3Y[0];\r\n      t[1] = r3Y[1];\r\n\r\n      // TODO: add msg.sender\r\n      uint h = uint(sha256(msg.sender, G, Y, c1, c2, t));\r\n\r\n      uint subr1r2 = submod(r1, r2);\r\n      uint modrh = mulmod(subr1r2,h,nn);\r\n      n = addmod(modrh,r3,nn);\r\n    }\r\n\r\n    // We compute h*(c1-c2) + t\r\n    function computeFirstHalfEquality(uint[2] c1, uint[2] c2, uint h, uint[2] t) returns (uint[2] left){\r\n\r\n      uint[3] memory negative_c2;\r\n      // Negate the 'y' co-ordinate of C2\r\n      negative_c2[0] = c2[0];\r\n      negative_c2[1] = pp - c2[1];\r\n      negative_c2[2] = 1;\r\n\r\n      // c1 - c2\r\n      uint[3] memory added_commitments_jacob = Secp256k1._addMixed(negative_c2,c1);\r\n\r\n      // convert to affine points\r\n      ECCMath.toZ1(added_commitments_jacob,pp);\r\n      uint[2] memory added_commitments;\r\n      added_commitments[0] = added_commitments_jacob[0];\r\n      added_commitments[1] = added_commitments_jacob[1];\r\n\r\n      // h*(c1-c2) + t\r\n      uint[3] memory left_jacob = Secp256k1._addMixed(Secp256k1._mul(h,added_commitments),t);\r\n      ECCMath.toZ1(left_jacob,pp);\r\n      left[0] = left_jacob[0];\r\n      left[1] = left_jacob[1];\r\n\r\n\r\n    }\r\n\r\n    // Verify equality proof of two pedersen commitments\r\n    // 1. Compute h = H(ID, G, Y, C1, C2, t), where G,Y are generators, C1, C2 are both commitments, and t is random factor.\r\n    // 2. Does nY == h*(c1-c2) + t\r\n    function verifyEqualityProof(uint n,  uint[2] c1, uint[2] c2, uint[2] t) returns (bool) {\r\n      if(!Secp256k1.isPubKey(c1)) { throw; }\r\n      if(!Secp256k1.isPubKey(c2)) { throw; }\r\n      if(!Secp256k1.isPubKey(t)) { throw; }\r\n\r\n      // Time to start trying to verify it... will be moved to another function\r\n      uint h = uint(sha256(msg.sender, G, Y, c1, c2, t));\r\n\r\n      uint[2] memory left = computeFirstHalfEquality(c1,c2,h,t);\r\n\r\n      // n * Y\r\n      uint[3] memory right = Secp256k1._mul(n,Y);\r\n\r\n      ECCMath.toZ1(right, pp);\r\n\r\n      if(left[0] == right[0] && left[1] == right[1]) {\r\n        return true;\r\n      } else {\r\n        return false;\r\n      }\r\n    }\r\n\r\n    // Create inequality of commitments...\r\n    // 1. t1 = r3*G, t2 = r4*Y\r\n    // 2. Compute h = H(ID, G, Y, c1, c2, t1, t2), where G,Y generators, c1,c2 commitments, t1,t2 inequality proof\r\n    // 3. n1 = h*(b1-b2) + r3, n2 = h*(r1-r2) + r4.\r\n    // return random factors t1,t2 and proofs n1,n2.\r\n    function createInequalityProof(uint b1, uint b2, uint r1, uint r2, uint r3, uint r4, uint[2] c1, uint[2] c2) returns (uint[2] t1, uint[2] t2, uint n1, uint n2) {\r\n\r\n      if(!Secp256k1.isPubKey(c1)) { throw; }\r\n      if(!Secp256k1.isPubKey(c2)) { throw; }\r\n\r\n      // r3 * G\r\n      uint[3] memory temp = Secp256k1._mul(r3,G);\r\n      ECCMath.toZ1(temp, pp);\r\n      t1[0] = temp[0];\r\n      t1[1] = temp[1];\r\n\r\n      // r4 * Y\r\n      temp = Secp256k1._mul(r4,Y);\r\n      ECCMath.toZ1(temp, pp);\r\n      t2[0] = temp[0];\r\n      t2[1] = temp[1];\r\n\r\n      // TODO: add msg.sender\r\n      uint h = uint(sha256(msg.sender, G, Y, c1, c2, t1, t2));\r\n\r\n      // h(b1-b2) + r3\r\n      n1 = submod(b1,b2);\r\n      uint helper = mulmod(n1,h,nn);\r\n      n1 = addmod(helper,r3,nn);\r\n\r\n      // h(r1-r2) + r4\r\n      n2 = submod(r1,r2);\r\n      helper = mulmod(n2,h,nn);\r\n      n2 = addmod(helper,r4,nn);\r\n\r\n    }\r\n\r\n    // We are computing h(c1 - c2) + t2\r\n    function computeSecondHalfInequality(uint[2] c1, uint[2] c2, uint[2] t2, uint h) returns (uint[3] right) {\r\n      uint[3] memory negative_c2;\r\n      // Negate the 'y' co-ordinate of C2\r\n      negative_c2[0] = c2[0];\r\n      negative_c2[1] = pp - c2[1];\r\n      negative_c2[2] = 1;\r\n\r\n      // c1 - c2\r\n      uint[3] memory added_commitments_jacob = Secp256k1._addMixed(negative_c2,c1);\r\n\r\n      // convert to affine points\r\n      ECCMath.toZ1(added_commitments_jacob,pp);\r\n      uint[2] memory added_commitments;\r\n      added_commitments[0] = added_commitments_jacob[0];\r\n      added_commitments[1] = added_commitments_jacob[1];\r\n\r\n      // h(c1-c2)\r\n      uint[3] memory h_mul_c1c2 = Secp256k1._mul(h,added_commitments);\r\n\r\n      // right hand side h(c1-c2) + t2\r\n      right = Secp256k1._addMixed(h_mul_c1c2,t2);\r\n      ECCMath.toZ1(right,pp);\r\n\r\n    }\r\n\r\n    // Verify inequality of commitments\r\n    // 1. Compute h = H(ID, G, Y, c1, c2, t1, t2), where G,Y generators, c1,c2 commitments, t1,t2 inequality proof\r\n    // 2. Verify n1G + n2Y = h*(c1-c2) + t1 + t2\r\n    // 3. Verify n2Y != h*(c1-c2) + t2\r\n    function verifyInequalityProof(uint[2] c1, uint[2] c2, uint[2] t1, uint[2] t2, uint n1, uint n2) returns (bool) {\r\n      if(!Secp256k1.isPubKey(c1)) { throw; }\r\n      if(!Secp256k1.isPubKey(c2)) { throw; }\r\n      if(!Secp256k1.isPubKey(t1)) { throw; }\r\n      if(!Secp256k1.isPubKey(t2)) { throw; }\r\n\r\n      uint h = uint(sha256(msg.sender, G, Y, c1, c2, t1, t2));\r\n\r\n      // h(c1 - c2) + t2\r\n      uint[3] memory right = computeSecondHalfInequality(c1, c2, t2, h);\r\n\r\n      // n2 * Y\r\n      uint[3] memory n2Y = Secp256k1._mul(n2,Y);\r\n      ECCMath.toZ1(n2Y,pp); // convert to affine\r\n\r\n      if(n2Y[0] != right[0] && n2Y[1] != right[1]) {\r\n\r\n        // h(c1 - c2) + t2 + t1\r\n        uint[3] memory h_c1c2_t2_t1 = Secp256k1._addMixed(right, t1);\r\n        ECCMath.toZ1(h_c1c2_t2_t1,pp); // convert to affine\r\n        right[0] = h_c1c2_t2_t1[0];\r\n        right[1] = h_c1c2_t2_t1[1];\r\n\r\n        // n1G + n2Y\r\n        uint[3] memory n1Gn2Y = Secp256k1._add(Secp256k1._mul(n1, G),n2Y);\r\n        ECCMath.toZ1(n1Gn2Y,pp); // convert to affine\r\n\r\n        if(n1Gn2Y[0] == right[0] && n1Gn2Y[1] == right[1]) {\r\n          return true;\r\n        }\r\n      }\r\n\r\n      return false;\r\n    }\r\n\r\n}\r\n",
  "sourcePath": "E:\\Programming\\ovn\\vote-selling\\contracts\\LocalCrypto.sol",
  "compiler": {
    "name": "solc",
    "version": "0.4.19+commit.c4cbbb05.Emscripten.clang"
  },
  "schemaVersion": "1.0.1",
  "updatedAt": "2018-03-11T05:37:51.668Z"
}