{
  "contractName": "owned",
  "abi": [
    {
      "constant": true,
      "inputs": [],
      "name": "owner",
      "outputs": [
        {
          "name": "",
          "type": "address"
        }
      ],
      "payable": false,
      "stateMutability": "view",
      "type": "function"
    },
    {
      "inputs": [],
      "payable": false,
      "stateMutability": "nonpayable",
      "type": "constructor"
    },
    {
      "constant": false,
      "inputs": [
        {
          "name": "newOwner",
          "type": "address"
        }
      ],
      "name": "transferOwnership",
      "outputs": [],
      "payable": false,
      "stateMutability": "nonpayable",
      "type": "function"
    }
  ],
  "bytecode": "0x6060604052341561000f57600080fd5b336000806101000a81548173ffffffffffffffffffffffffffffffffffffffff021916908373ffffffffffffffffffffffffffffffffffffffff1602179055506101ce8061005e6000396000f30060606040526004361061004c576000357c0100000000000000000000000000000000000000000000000000000000900463ffffffff1680638da5cb5b14610051578063f2fde38b146100a6575b600080fd5b341561005c57600080fd5b6100646100df565b604051808273ffffffffffffffffffffffffffffffffffffffff1673ffffffffffffffffffffffffffffffffffffffff16815260200191505060405180910390f35b34156100b157600080fd5b6100dd600480803573ffffffffffffffffffffffffffffffffffffffff16906020019091905050610104565b005b6000809054906101000a900473ffffffffffffffffffffffffffffffffffffffff1681565b3373ffffffffffffffffffffffffffffffffffffffff166000809054906101000a900473ffffffffffffffffffffffffffffffffffffffff1673ffffffffffffffffffffffffffffffffffffffff1614151561015f57600080fd5b806000806101000a81548173ffffffffffffffffffffffffffffffffffffffff021916908373ffffffffffffffffffffffffffffffffffffffff160217905550505600a165627a7a72305820717bf1b1caf8b97450b3cb4ce56497071d2d5d028b1f23f17dae302f1f66bd870029",
  "source": "pragma solidity ^0.4.18;\r\n\r\nimport \"./Secp256k1.sol\";\r\nimport \"./LocalCrypto.sol\";\r\nimport \"./Utils.sol\";\r\n\r\ncontract owned {\r\n    address public owner;\r\n\r\n    /* Initialise contract creator as owner */\r\n    function owned() {\r\n        owner = msg.sender;\r\n    }\r\n\r\n    /* Function to dictate that only the designated owner can call a function */\r\n\t  modifier onlyOwner {\r\n        if(owner != msg.sender) throw;\r\n        _;\r\n    }\r\n\r\n    /* Transfer ownership of this contract to someone else */\r\n    function transferOwnership(address newOwner) onlyOwner() {\r\n        owner = newOwner;\r\n    }\r\n}\r\n\r\n/*\r\n * @title AnonymousVoting\r\n *  Open Vote Network\r\n *  A self-talling protocol that supports voter privacy.\r\n *\r\n *  Author: Patrick McCorry\r\n */\r\ncontract AnonymousVoting is owned {\r\n\r\n  // Modulus for public keys\r\n  uint constant pp = 0xFFFFFFFFFFFFFFFFFFFFFFFFFFFFFFFFFFFFFFFFFFFFFFFFFFFFFFFEFFFFFC2F;\r\n\r\n  // Base point (generator) G\r\n  uint constant Gx = 0x79BE667EF9DCBBAC55A06295CE870B07029BFCDB2DCE28D959F2815B16F81798;\r\n  uint constant Gy = 0x483ADA7726A3C4655DA4FBFC0E1108A8FD17B448A68554199C47D08FFB10D4B8;\r\n\r\n  // Modulus for private keys (sub-group)\r\n  uint constant nn = 0xFFFFFFFFFFFFFFFFFFFFFFFFFFFFFFFEBAAEDCE6AF48A03BBFD25E8CD0364141;\r\n\r\n  uint[2] G;\r\n\r\n  //Every address has an index\r\n  //This makes looping in the program easier.\r\n  address[] public addresses;\r\n  mapping (address => uint) public addressid; // Address to Counter\r\n  mapping (uint => Voter) public voters;\r\n  mapping (address => bool) public eligible; // White list of addresses allowed to vote\r\n  mapping (address => bool) public registered; // Address registered?\r\n  mapping (address => bool) public votecast; // Address voted?\r\n  mapping (address => bool) public commitment; // Have we received their commitment?\r\n  mapping (address => uint) public refunds; // Have we received their commitment?\r\n\r\n  struct Voter {\r\n      address addr;\r\n      uint[2] registeredkey;\r\n      uint[2] reconstructedkey;\r\n      bytes32 commitment;\r\n      uint[2] vote;\r\n  }\r\n\r\n  // Work around function to fetch details about a voter\r\n  function getVoter() returns (uint[2] _registeredkey, uint[2] _reconstructedkey, bytes32 _commitment){\r\n      uint index = addressid[msg.sender];\r\n      _registeredkey = voters[index].registeredkey;\r\n      _reconstructedkey = voters[index].reconstructedkey;\r\n      _commitment = voters[index].commitment;\r\n  }\r\n\r\n  function getVoter(address _voter) returns (uint[2] _registeredkey, uint[2] _reconstructedkey, bytes32 _commitment){\r\n      uint index = addressid[_voter];\r\n      _registeredkey = voters[index].registeredkey;\r\n      _reconstructedkey = voters[index].reconstructedkey;\r\n      _commitment = voters[index].commitment;\r\n  }\r\n\r\n  // List of timers that each phase MUST end by an explicit time in UNIX timestamp.\r\n  // Ethereum works in SECONDS. Not milliseconds.\r\n  uint public finishSignupPhase; // Election Authority to transition to next phase.\r\n  uint public endSignupPhase; // Election Authority does not transition to next phase by this time.\r\n  uint public endCommitmentPhase; // Voters have not sent their commitments in by this time.\r\n  uint public endVotingPhase; // Voters have not submitted their vote by this stage.\r\n  uint public endRefundPhase; // Voters must claim their refund by this stage.\r\n\r\n  uint public totalregistered; //Total number of participants that have submited a voting key\r\n  uint public totaleligible;\r\n  uint public totalcommitted;\r\n  uint public totalvoted;\r\n  uint public totalrefunded;\r\n  uint public totaltorefund;\r\n\r\n  string public question;\r\n  uint[2] public finaltally; // Final tally\r\n  bool public commitmentphase; // OPTIONAL phase.\r\n  uint public depositrequired;\r\n  uint public gap; // Minimum amount of time between time stamps.\r\n  address public charity;\r\n\r\n  // TODO: Why cant election authority receive the spoils?\r\n  uint public lostdeposit; // This money is collected from non active voters...\r\n\r\n  enum State { SETUP, SIGNUP, COMMITMENT, VOTE, FINISHED }\r\n  State public state;\r\n\r\n  modifier inState(State s) {\r\n    if(state != s) {\r\n        throw;\r\n    }\r\n    _;\r\n  }\r\n\r\n  // 2 round anonymous voting protocol\r\n  // TODO: Right now due to gas limits there is an upper limit\r\n  // on the number of participants that we can have voting...\r\n  // I need to split the functions up... so if they cannot\r\n  // finish their entire workload in 1 transaction, then\r\n  // it does the maximum. This way we can chain transactions\r\n  // to complete the job...\r\n  function AnonymousVoting(uint _gap, address _charity) {\r\n    G[0] = Gx;\r\n    G[1] = Gy;\r\n    state = State.SETUP;\r\n    question = \"No question set\";\r\n    gap = _gap; // Minimum gap period between stages\r\n    charity = _charity;\r\n  }\r\n\r\n  // Owner of contract sets a whitelist of addresses that are eligible to vote.\r\n  function setEligible(address[] addr) onlyOwner {\r\n\r\n    // We can only handle up 50 people at the moment.\r\n    if(totaleligible > 50) {\r\n      throw;\r\n    }\r\n\r\n    // Sign up the addresses\r\n    for(uint i=0; i<addr.length; i++) {\r\n\r\n      if(!eligible[addr[i]]) {\r\n        eligible[addr[i]] = true;\r\n        addresses.push(addr[i]);\r\n        totaleligible += 1;\r\n      }\r\n    }\r\n  }\r\n\r\n  // Owner of contract declares that eligible addresses begin round 1 of the protocol\r\n  // Time is the number of 'blocks' we must wait until we can move onto round 2.\r\n  function beginSignUp(string _question, bool enableCommitmentPhase, uint _finishSignupPhase, uint _endSignupPhase, uint _endCommitmentPhase, uint _endVotingPhase, uint _endRefundPhase, uint _depositrequired) inState(State.SETUP) onlyOwner payable returns (bool){\r\n\r\n    // We have lots of timers. let's explain each one\r\n    // _finishSignUpPhase - Voters should be signed up before this timer\r\n\r\n    // Voter is refunded if any of the timers expire:\r\n    // _endSignUpPhase - Election Authority never finished sign up phase\r\n    // _endCommitmentPhase - One or more voters did not send their commitments in time\r\n    // _endVotingPhase - One or more voters did not send their votes in time\r\n    // _endRefundPhase - Provide time for voters to get their money back.\r\n    // Why is there no endTally? Because anyone can call it!\r\n\r\n    // Represented in UNIX time...\r\n    // TODO: Set to block timestamp...\r\n    // TODO: Enforce gap to be at least 1 hour.. may break unit testing\r\n    // Make sure 3 people are at least eligible to vote..\r\n    // Deposit can be zero or more WEI\r\n    if(_finishSignupPhase > 0 + gap && addresses.length >= 3 && _depositrequired >= 0) {\r\n\r\n        // Ensure each time phase finishes in the future...\r\n        // Ensure there is a gap of 'x time' between each phase.\r\n        if(_endSignupPhase-gap < _finishSignupPhase) {\r\n          return false;\r\n        }\r\n\r\n        // We need to check Commitment timestamps if phase is enabled.\r\n        if(enableCommitmentPhase) {\r\n\r\n          // Make sure there is a gap between 'end of registration' and 'end of commitment' phases.\r\n          if(_endCommitmentPhase-gap < _endSignupPhase) {\r\n            return false;\r\n          }\r\n\r\n          // Make sure there is a gap between 'end of commitment' and 'end of vote' phases.\r\n          if(_endVotingPhase-gap < _endCommitmentPhase) {\r\n            return false;\r\n          }\r\n\r\n        } else {\r\n\r\n          // We have no commitment phase.\r\n          // Make sure there is a gap between 'end of registration' and 'end of vote' phases.\r\n          if(_endVotingPhase-gap < _endSignupPhase) {\r\n            return false;\r\n          }\r\n        }\r\n\r\n        // Provide time for people to get a refund once the voting phase has ended.\r\n        if(_endRefundPhase-gap < _endVotingPhase) {\r\n          return false;\r\n        }\r\n\r\n\r\n      // Require Election Authority to deposit ether.\r\n      if(msg.value  != _depositrequired) {\r\n        return false;\r\n      }\r\n\r\n      // Store the election authority's deposit\r\n      // Note: This deposit is only lost if the\r\n      // election authority does not begin the election\r\n      // or call the tally function before the timers expire.\r\n      refunds[msg.sender] = msg.value;\r\n\r\n      // All time stamps are reasonable.\r\n      // We can now begin the signup phase.\r\n      state = State.SIGNUP;\r\n\r\n      // All timestamps should be in UNIX..\r\n      finishSignupPhase = _finishSignupPhase;\r\n      endSignupPhase = _endSignupPhase;\r\n      endCommitmentPhase = _endCommitmentPhase;\r\n      endVotingPhase = _endVotingPhase;\r\n      endRefundPhase = _endRefundPhase;\r\n      question = _question;\r\n      commitmentphase = enableCommitmentPhase;\r\n      depositrequired = _depositrequired; // Deposit required from all voters\r\n\r\n      return true;\r\n    }\r\n\r\n    return false;\r\n  }\r\n\r\n  // This function determines if one of the deadlines have been missed\r\n  // If a deadline has been missed - then we finish the election,\r\n  // and allocate refunds to the correct people depending on the situation.\r\n  function deadlinePassed() returns (bool){\r\n\r\n      uint refund = 0;\r\n\r\n      // Has the Election Authority missed the signup deadline?\r\n      // Election Authority will forfeit his deposit.\r\n      if(state == State.SIGNUP && block.timestamp > endSignupPhase) {\r\n\r\n         // Nothing to do. All voters are refunded.\r\n         state = State.FINISHED;\r\n         totaltorefund = totalregistered;\r\n\r\n         // Election Authority forfeits his deposit...\r\n         // If 3 or more voters had signed up...\r\n         if(addresses.length >= 3) {\r\n           // Election Authority forfeits deposit\r\n           refund = refunds[owner];\r\n           refunds[owner] = 0;\r\n           lostdeposit = lostdeposit + refund;\r\n\r\n         }\r\n         return true;\r\n      }\r\n\r\n      // Has a voter failed to send their commitment?\r\n      // Election Authority DOES NOT forgeit his deposit.\r\n      if(state == State.COMMITMENT && block.timestamp > endCommitmentPhase) {\r\n\r\n         // Check which voters have not sent their commitment\r\n         for(uint i=0; i<totalregistered; i++) {\r\n\r\n            // Voters forfeit their deposit if failed to send a commitment\r\n            if(!commitment[voters[i].addr]) {\r\n               refund = refunds[voters[i].addr];\r\n               refunds[voters[i].addr] = 0;\r\n               lostdeposit = lostdeposit + refund;\r\n            } else {\r\n\r\n              // We will need to refund this person.\r\n              totaltorefund = totaltorefund + 1;\r\n            }\r\n         }\r\n\r\n         state = State.FINISHED;\r\n         return true;\r\n      }\r\n\r\n      // Has a voter failed to send in their vote?\r\n      // Eletion Authority does NOT forfeit his deposit.\r\n      if(state == State.VOTE && block.timestamp > endVotingPhase) {\r\n\r\n         // Check which voters have not cast their vote\r\n         for(i=0; i<totalregistered; i++) {\r\n\r\n            // Voter forfeits deposit if they have not voted.\r\n            if(!votecast[voters[i].addr]) {\r\n              refund = refunds[voters[i].addr];\r\n              refunds[voters[i].addr] = 0;\r\n              lostdeposit = lostdeposit + refund;\r\n            } else {\r\n\r\n              // Lets make sure refund has not already been issued...\r\n              if(refunds[voters[i].addr] > 0) {\r\n                // We will need to refund this person.\r\n                totaltorefund = totaltorefund + 1;\r\n              }\r\n            }\r\n         }\r\n\r\n         state = State.FINISHED;\r\n         return true;\r\n      }\r\n\r\n      // Has the deadline passed for voters to claim their refund?\r\n      // Only owner can call. Owner must be refunded (or forfeited).\r\n      // Refund period is over or everyone has already been refunded.\r\n      if(state == State.FINISHED && msg.sender == owner && refunds[owner] == 0 && (block.timestamp > endRefundPhase || totaltorefund == totalrefunded)) {\r\n\r\n         // Collect all unclaimed refunds. We will send it to charity.\r\n         for(i=0; i<totalregistered; i++) {\r\n           refund = refunds[voters[i].addr];\r\n           refunds[voters[i].addr] = 0;\r\n           lostdeposit = lostdeposit + refund;\r\n         }\r\n\r\n         uint[2] memory empty;\r\n\r\n         for(i=0; i<addresses.length; i++) {\r\n            address addr = addresses[i];\r\n            eligible[addr] = false; // No longer eligible\r\n            registered[addr] = false; // Remove voting registration\r\n            voters[i] = Voter({addr: 0, registeredkey: empty, reconstructedkey: empty, vote: empty, commitment: 0});\r\n            addressid[addr] = 0; // Remove index\r\n            votecast[addr] = false; // Remove that vote was cast\r\n            commitment[addr] = false;\r\n         }\r\n\r\n         // Reset timers.\r\n         finishSignupPhase = 0;\r\n         endSignupPhase = 0;\r\n         endCommitmentPhase = 0;\r\n         endVotingPhase = 0;\r\n         endRefundPhase = 0;\r\n\r\n         delete addresses;\r\n\r\n         // Keep track of voter activity\r\n         totalregistered = 0;\r\n         totaleligible = 0;\r\n         totalcommitted = 0;\r\n         totalvoted = 0;\r\n\r\n         // General values that need reset\r\n         question = \"No question set\";\r\n         finaltally[0] = 0;\r\n         finaltally[1] = 0;\r\n         commitmentphase = false;\r\n         depositrequired = 0;\r\n         totalrefunded = 0;\r\n         totaltorefund = 0;\r\n\r\n         state = State.SETUP;\r\n         return true;\r\n      }\r\n\r\n      // No deadlines have passed...\r\n      return false;\r\n  }\r\n\r\n  // Called by participants to register their voting public key\r\n  // Participant mut be eligible, and can only register the first key sent key.\r\n  function register(uint[2] xG, uint[3] vG, uint r) inState(State.SIGNUP) payable returns (bool) {\r\n\r\n     // HARD DEADLINE\r\n     if(block.timestamp > finishSignupPhase) {\r\n       throw; // throw returns the voter's ether, but exhausts their gas.\r\n     }\r\n\r\n    // Make sure the ether being deposited matches what we expect.\r\n    if(msg.value != depositrequired) {\r\n      return false;\r\n    }\r\n\r\n    // Only white-listed addresses can vote\r\n    if(eligible[msg.sender]) {\r\n        if(Utils.verifyZKP(xG,r,vG) && !registered[msg.sender]) {\r\n\r\n            // Store deposit\r\n            refunds[msg.sender] = msg.value;\r\n\r\n            // Update voter's registration\r\n            uint[2] memory empty;\r\n            addressid[msg.sender] = totalregistered;\r\n            voters[totalregistered] = Voter({addr: msg.sender, registeredkey: xG, reconstructedkey: empty, vote: empty, commitment: 0});\r\n            registered[msg.sender] = true;\r\n            totalregistered += 1;\r\n\r\n            return true;\r\n        }\r\n    }\r\n\r\n    return false;\r\n  }\r\n\r\n\r\n  // Timer has expired - we want to start computing the reconstructed keys\r\n  function finishRegistrationPhase() inState(State.SIGNUP) onlyOwner returns(bool) {\r\n\r\n\r\n      // Make sure at least 3 people have signed up...\r\n      if(totalregistered < 3) {\r\n        return;\r\n      }\r\n\r\n      // We can only compute the public keys once participants\r\n      // have been given an opportunity to register their\r\n      // voting public key.\r\n      if(block.timestamp < finishSignupPhase) {\r\n        return;\r\n      }\r\n\r\n      // Election Authority has a deadline to begin election\r\n      if(block.timestamp > endSignupPhase) {\r\n        return;\r\n      }\r\n\r\n      uint[2] memory temp;\r\n      uint[3] memory yG;\r\n      uint[3] memory beforei;\r\n      uint[3] memory afteri;\r\n\r\n      // Step 1 is to compute the index 1 reconstructed key\r\n      afteri[0] = voters[1].registeredkey[0];\r\n      afteri[1] = voters[1].registeredkey[1];\r\n      afteri[2] = 1;\r\n\r\n      for(uint i=2; i<totalregistered; i++) {\r\n         Secp256k1._addMixedM(afteri, voters[i].registeredkey);\r\n      }\r\n\r\n      ECCMath.toZ1(afteri,pp);\r\n      voters[0].reconstructedkey[0] = afteri[0];\r\n      voters[0].reconstructedkey[1] = pp - afteri[1];\r\n\r\n      // Step 2 is to add to beforei, and subtract from afteri.\r\n     for(i=1; i<totalregistered; i++) {\r\n\r\n       if(i==1) {\r\n         beforei[0] = voters[0].registeredkey[0];\r\n         beforei[1] = voters[0].registeredkey[1];\r\n         beforei[2] = 1;\r\n       } else {\r\n         Secp256k1._addMixedM(beforei, voters[i-1].registeredkey);\r\n       }\r\n\r\n       // If we have reached the end... just store beforei\r\n       // Otherwise, we need to compute a key.\r\n       // Counting from 0 to n-1...\r\n       if(i==(totalregistered-1)) {\r\n         ECCMath.toZ1(beforei,pp);\r\n         voters[i].reconstructedkey[0] = beforei[0];\r\n         voters[i].reconstructedkey[1] = beforei[1];\r\n\r\n       } else {\r\n\r\n          // Subtract 'i' from afteri\r\n          temp[0] = voters[i].registeredkey[0];\r\n          temp[1] = pp - voters[i].registeredkey[1];\r\n\r\n          // Grab negation of afteri (did not seem to work with Jacob co-ordinates)\r\n          Secp256k1._addMixedM(afteri,temp);\r\n          ECCMath.toZ1(afteri,pp);\r\n\r\n          temp[0] = afteri[0];\r\n          temp[1] = pp - afteri[1];\r\n\r\n          // Now we do beforei - afteri...\r\n          yG = Secp256k1._addMixed(beforei, temp);\r\n\r\n          ECCMath.toZ1(yG,pp);\r\n\r\n          voters[i].reconstructedkey[0] = yG[0];\r\n          voters[i].reconstructedkey[1] = yG[1];\r\n       }\r\n     }\r\n\r\n      // We have computed each voter's special voting key.\r\n      // Now we either enter the commitment phase (option) or voting phase.\r\n      if(commitmentphase) {\r\n        state = State.COMMITMENT;\r\n      } else {\r\n        state = State.VOTE;\r\n      }\r\n  }\r\n\r\n  /*\r\n   * OPTIONAL STAGE: All voters submit the hash of their vote.\r\n   * Why? The final voter that submits their vote gets to see the tally result\r\n   * before anyone else. This provides the voter with an additional advantage\r\n   * compared to all other voters. To get around this issue; we can force all\r\n   * voters to commit to their vote in advance.... and votes are only revealed\r\n   * once all voters have committed. This way the final voter has no additional\r\n   * advantage as they cannot change their vote depending on the tally.\r\n   * However... we cannot enforce the pre-image to be a hash, and someone could\r\n   * a commitment that is not a vote. This will break the election, but you\r\n   * will be able to determine who did it (and possibly punish them!).\r\n   */\r\n  function submitCommitment(bytes32 h) inState(State.COMMITMENT) {\r\n\r\n     //All voters have a deadline to send their commitment\r\n     if(block.timestamp > endCommitmentPhase) {\r\n       return;\r\n     }\r\n\r\n    if(!commitment[msg.sender]) {\r\n        commitment[msg.sender] = true;\r\n        uint index = addressid[msg.sender];\r\n        voters[index].commitment = h;\r\n        totalcommitted = totalcommitted + 1;\r\n\r\n        // Once we have recorded all commitments... let voters vote!\r\n        if(totalcommitted == totalregistered) {\r\n          state = State.VOTE;\r\n        }\r\n    }\r\n  }\r\n\r\n  // Given the 1 out of 2 ZKP - record the users vote!\r\n  function submitVote(uint[4] params, uint[2] y, uint[2] a1, uint[2] b1, uint[2] a2, uint[2] b2) inState(State.VOTE) returns (bool) {\r\n\r\n     // HARD DEADLINE\r\n     if(block.timestamp > endVotingPhase) {\r\n       return;\r\n     }\r\n\r\n     uint c = addressid[msg.sender];\r\n\r\n     // Make sure the sender can vote, and hasn't already voted.\r\n     if(registered[msg.sender] && !votecast[msg.sender]) {\r\n\r\n       // OPTIONAL Phase: Voters need to commit to their vote in advance.\r\n       // Time to verify if this vote matches the voter's previous commitment.\r\n       if(commitmentphase) {\r\n\r\n         // Voter has previously committed to the entire zero knowledge proof...\r\n         bytes32 h = sha3(msg.sender, params, voters[c].registeredkey, voters[c].reconstructedkey, y, a1, b1, a2, b2);\r\n\r\n         // No point verifying the ZKP if it doesn't match the voter's commitment.\r\n         if(voters[c].commitment != h) {\r\n           return false;\r\n         }\r\n       }\r\n\r\n       // Verify the ZKP for the vote being cast\r\n       uint i = addressid[msg.sender];\r\n       if(Utils.verify1outof2ZKP(params, voters[i].registeredkey, voters[i].reconstructedkey, y, a1, b1, a2, b2)) {\r\n         voters[c].vote[0] = y[0];\r\n         voters[c].vote[1] = y[1];\r\n\r\n         votecast[msg.sender] = true;\r\n\r\n         totalvoted += 1;\r\n\r\n         // Refund the sender their ether..\r\n         // Voter has finished their part of the protocol...\r\n         uint refund = refunds[msg.sender];\r\n         refunds[msg.sender] = 0;\r\n\r\n         // We can still fail... Safety first.\r\n         // If failed... voter can call withdrawRefund()\r\n         // to collect their money once the election has finished.\r\n         if (!msg.sender.send(refund)) {\r\n            refunds[msg.sender] = refund;\r\n         }\r\n\r\n         return true;\r\n       }\r\n     }\r\n\r\n     // Either vote has already been cast, or ZKP verification failed.\r\n     return false;\r\n  }\r\n\r\n  // Assuming all votes have been submitted. We can leak the tally.\r\n  // We assume Election Authority performs this function. It could be anyone.\r\n  // Election Authority gets deposit upon tallying.\r\n  // TODO: Anyone can do this function. Perhaps remove refund code - and force Election Authority\r\n  // to explicit withdraw it? Election cannot reset until he is refunded - so that should be OK\r\n  function computeTally() inState(State.VOTE) onlyOwner {\r\n\r\n     uint[3] memory temp;\r\n     uint[2] memory vote;\r\n     uint refund;\r\n\r\n     // Sum all votes\r\n     for(uint i=0; i<totalregistered; i++) {\r\n\r\n         // Confirm all votes have been cast...\r\n         if(!votecast[voters[i].addr]) {\r\n            throw;\r\n         }\r\n\r\n         vote = voters[i].vote;\r\n\r\n         if(i==0) {\r\n           temp[0] = vote[0];\r\n           temp[1] = vote[1];\r\n           temp[2] = 1;\r\n         } else {\r\n             Secp256k1._addMixedM(temp, vote);\r\n         }\r\n     }\r\n\r\n     // All votes have been accounted for...\r\n     // Get tally, and change state to 'Finished'\r\n     state = State.FINISHED;\r\n\r\n     // All voters should already be refunded!\r\n     for(i = 0; i<totalregistered; i++) {\r\n\r\n       // Sanity check.. make sure refunds have been issued..\r\n       if(refunds[voters[i].addr] > 0) {\r\n         totaltorefund = totaltorefund + 1;\r\n       }\r\n     }\r\n\r\n     // Each vote is represented by a G.\r\n     // If there are no votes... then it is 0G = (0,0)...\r\n     if(temp[0] == 0) {\r\n       finaltally[0] = 0;\r\n       finaltally[1] = totalregistered;\r\n\r\n       // Election Authority is responsible for calling this....\r\n       // He should not fail his own refund...\r\n       // Make sure tally is computed before refunding...\r\n       // TODO: Check if this is necessary\r\n       refund = refunds[msg.sender];\r\n       refunds[msg.sender] = 0;\r\n\r\n       if (!msg.sender.send(refund)) {\r\n          refunds[msg.sender] = refund;\r\n       }\r\n       return;\r\n     } else {\r\n\r\n       // There must be a vote. So lets\r\n       // start adding 'G' until we\r\n       // find the result.\r\n       ECCMath.toZ1(temp,pp);\r\n       uint[3] memory tempG;\r\n       tempG[0] = G[0];\r\n       tempG[1] = G[1];\r\n       tempG[2] = 1;\r\n\r\n       // Start adding 'G' and looking for a match\r\n       for(i=1; i<=totalregistered; i++) {\r\n\r\n         if(temp[0] == tempG[0]) {\r\n             finaltally[0] = i;\r\n             finaltally[1] = totalregistered;\r\n\r\n             // Election Authority is responsible for calling this....\r\n             // He should not fail his own refund...\r\n             // Make sure tally is computed before refunding...\r\n             // TODO: Check if this is necessary\r\n             // If it fails - he can use withdrawRefund()\r\n             // Election cannot be reset until he is refunded.\r\n             refund = refunds[msg.sender];\r\n             refunds[msg.sender] = 0;\r\n\r\n             if (!msg.sender.send(refund)) {\r\n                refunds[msg.sender] = refund;\r\n             }\r\n             return;\r\n         }\r\n\r\n         // If something bad happens and we cannot find the Tally\r\n         // Then this 'addition' will be run 1 extra time due to how\r\n         // we have structured the for loop.\r\n         // TODO: Does it need fixed?\r\n         Secp256k1._addMixedM(tempG, G);\r\n           ECCMath.toZ1(tempG,pp);\r\n         }\r\n\r\n         // Something bad happened. We should never get here....\r\n         // This represents an error message... best telling people\r\n         // As we cannot recover from it anyway.\r\n         // TODO: Handle this better....\r\n         finaltally[0] = 0;\r\n         finaltally[1] = 0;\r\n\r\n         // Election Authority is responsible for calling this....\r\n         // He should not fail his own refund...\r\n         // TODO: Check if this is necessary\r\n         refund = refunds[msg.sender];\r\n         refunds[msg.sender] = 0;\r\n\r\n         if (!msg.sender.send(refund)) {\r\n            refunds[msg.sender] = refund;\r\n         }\r\n         return;\r\n      }\r\n  }\r\n\r\n  // There are two reasons why we might be in a finished state\r\n  // 1. The tally has been computed\r\n  // 2. A deadline has been missed.\r\n  // In the former; everyone gets a refund. In the latter; only active participants get a refund\r\n  // We can assume if the deadline has been missed - then refunds has ALREADY been updated to\r\n  // take that into account. (a transaction is required to indicate a deadline has been missed\r\n  // and in that transaction - we can penalise the non-active participants. lazy sods!)\r\n  function withdrawRefund() inState(State.FINISHED){\r\n\r\n    uint refund = refunds[msg.sender];\r\n    refunds[msg.sender] = 0;\r\n\r\n    if (!msg.sender.send(refund)) {\r\n       refunds[msg.sender] = refund;\r\n    } else {\r\n\r\n      // Tell everyone we have issued the refund.\r\n      // Owner is not included in refund counter.\r\n      // This is OK - we cannot reset election until\r\n      // the owner has been refunded...\r\n      // Counter only concerns voters!\r\n      if(msg.sender != owner) {\r\n         totalrefunded = totalrefunded + 1;\r\n      }\r\n    }\r\n  }\r\n\r\n  // Send the lost deposits to a charity. Anyone can call it.\r\n  // Lost Deposit increments for each failed election. It is only\r\n  // reset upon sending to the charity!\r\n  function sendToCharity() {\r\n\r\n    // Only send this money to the owner\r\n    uint profit = lostdeposit;\r\n    lostdeposit = 0;\r\n\r\n    // Try to send money\r\n    if(!charity.send(profit)) {\r\n\r\n      // We failed to send the money. Record it again.\r\n      lostdeposit = profit;\r\n    }\r\n  }\r\n}\r\n",
  "sourcePath": "E:\\Programming\\ovn\\vote-selling\\contracts\\AnonymousVoting.sol",
  "compiler": {
    "name": "solc",
    "version": "0.4.19+commit.c4cbbb05.Emscripten.clang"
  },
  "schemaVersion": "1.0.1",
  "updatedAt": "2018-03-11T05:37:50.887Z"
}