{
  "contractName": "Utils",
  "abi": [
    {
      "constant": false,
      "inputs": [
        {
          "name": "xG",
          "type": "uint256[2]"
        },
        {
          "name": "r",
          "type": "uint256"
        },
        {
          "name": "vG",
          "type": "uint256[3]"
        }
      ],
      "name": "verifyZKP",
      "outputs": [
        {
          "name": "",
          "type": "bool"
        }
      ],
      "payable": false,
      "stateMutability": "nonpayable",
      "type": "function"
    },
    {
      "constant": false,
      "inputs": [
        {
          "name": "params",
          "type": "uint256[4]"
        },
        {
          "name": "xG",
          "type": "uint256[2]"
        },
        {
          "name": "yG",
          "type": "uint256[2]"
        },
        {
          "name": "y",
          "type": "uint256[2]"
        },
        {
          "name": "a1",
          "type": "uint256[2]"
        },
        {
          "name": "b1",
          "type": "uint256[2]"
        },
        {
          "name": "a2",
          "type": "uint256[2]"
        },
        {
          "name": "b2",
          "type": "uint256[2]"
        }
      ],
      "name": "verify1outof2ZKP",
      "outputs": [
        {
          "name": "",
          "type": "bool"
        }
      ],
      "payable": false,
      "stateMutability": "nonpayable",
      "type": "function"
    }
  ],
  "bytecode": "0x6060604052341561000f57600080fd5b6128e28061001e6000396000f30060606040526004361061004c576000357c0100000000000000000000000000000000000000000000000000000000900463ffffffff168063c07bbc8714610051578063fb3f0d6f146101d8575b600080fd5b6101be600480806080019060048060200260405190810160405280929190826004602002808284378201915050505050919080604001906002806020026040519081016040528092919082600260200280828437820191505050505091908060400190600280602002604051908101604052809291908260026020028082843782019150505050509190806040019060028060200260405190810160405280929190826002602002808284378201915050505050919080604001906002806020026040519081016040528092919082600260200280828437820191505050505091908060400190600280602002604051908101604052809291908260026020028082843782019150505050509190806040019060028060200260405190810160405280929190826002602002808284378201915050505050919080604001906002806020026040519081016040528092919082600260200280828437820191505050505091905050610260565b604051808215151515815260200191505060405180910390f35b610246600480806040019060028060200260405190810160405280929190826002602002808284378201915050505050919080359060200190919080606001906003806020026040519081016040528092919082600360200280828437820191505050505091905050610a61565b604051808215151515815260200191505060405180910390f35b600061026a6127bf565b6102726127bf565b61027a6127e6565b6102826127e6565b7f79be667ef9dcbbac55a06295ce870b07029bfcdb2dce28d959f2815b16f817988460006002811015156102b257fe5b6020020181815250507f483ada7726a3c4655da4fbfc0e1108a8fd17b448a68554199c47d08ffb10d4b88460016002811015156102eb57fe5b6020020181815250506102fd8c610d1c565b158061030f575061030d8b610d1c565b155b80610320575061031e8a610d1c565b155b80610331575061032f89610d1c565b155b80610342575061034088610d1c565b155b80610353575061035187610d1c565b155b80610364575061036286610d1c565b155b156103725760009450610a51565b7ffffffffffffffffffffffffffffffffebaaedce6af48a03bbfd25e8cd03641418d60016004811015156103a257fe5b60200201518e60006004811015156103b657fe5b6020020151086002338e8d8d8d8d8d600060405160200152604051808873ffffffffffffffffffffffffffffffffffffffff1673ffffffffffffffffffffffffffffffffffffffff166c0100000000000000000000000002815260140187600260200280838360005b8381101561043a57808201518184015260208101905061041f565b5050505090500186600260200280838360005b8381101561046857808201518184015260208101905061044d565b5050505090500185600260200280838360005b8381101561049657808201518184015260208101905061047b565b5050505090500184600260200280838360005b838110156104c45780820151818401526020810190506104a9565b5050505090500183600260200280838360005b838110156104f25780820151818401526020810190506104d7565b5050505090500182600260200280838360005b83811015610520578082015181840152602081019050610505565b5050505090500197505050505050505060206040518083038160008661646e5a03f1151561054d57600080fd5b5050604051805190506001900414151561056a5760009450610a51565b6105878d600260048110151561057c57fe5b602002015185610d2e565b91506105af826105aa8f600060048110151561059f57fe5b60200201518f610d2e565b61155d565b90506105db817ffffffffffffffffffffffffffffffffffffffffffffffffffffffffefffffc2f6119ab565b8060006003811015156105ea57fe5b60200201518960006002811015156105fe57fe5b6020020151141580610636575080600160038110151561061a57fe5b602002015189600160028110151561062e57fe5b602002015114155b156106445760009450610a51565b6106618d600260048110151561065657fe5b60200201518c610d2e565b9150610689826106848f600060048110151561067957fe5b60200201518d610d2e565b61155d565b90506106b5817ffffffffffffffffffffffffffffffffffffffffffffffffffffffffefffffc2f6119ab565b8060006003811015156106c457fe5b60200201518860006002811015156106d857fe5b602002015114158061071057508060016003811015156106f457fe5b602002015188600160028110151561070857fe5b602002015114155b1561071e5760009450610a51565b61073b8d600360048110151561073057fe5b602002015185610d2e565b91506107638261075e8f600160048110151561075357fe5b60200201518f610d2e565b61155d565b905061078f817ffffffffffffffffffffffffffffffffffffffffffffffffffffffffefffffc2f6119ab565b80600060038110151561079e57fe5b60200201518760006002811015156107b257fe5b60200201511415806107ea57508060016003811015156107ce57fe5b60200201518760016002811015156107e257fe5b602002015114155b156107f85760009450610a51565b83600060028110151561080757fe5b602002015183600060028110151561081b57fe5b60200201818152505083600160028110151561083357fe5b60200201517ffffffffffffffffffffffffffffffffffffffffffffffffffffffffefffffc2f0383600160028110151561086957fe5b60200201818152505089600060028110151561088157fe5b602002015181600060038110151561089557fe5b6020020181815250508960016002811015156108ad57fe5b60200201518160016003811015156108c157fe5b60200201818152505060018160026003811015156108db57fe5b6020020181815250506108ee8184611a54565b915061091a827ffffffffffffffffffffffffffffffffffffffffffffffffffffffffefffffc2f6119ab565b81600060038110151561092957fe5b602002015183600060028110151561093d57fe5b60200201818152505081600160038110151561095557fe5b602002015183600160028110151561096957fe5b60200201818152505061098f8d600160048110151561098457fe5b602002015184610d2e565b91506109b76109b18e60036004811015156109a657fe5b60200201518d610d2e565b8361155d565b90506109e3817ffffffffffffffffffffffffffffffffffffffffffffffffffffffffefffffc2f6119ab565b8060006003811015156109f257fe5b6020020151866000600281101515610a0657fe5b6020020151141580610a3e5750806001600381101515610a2257fe5b6020020151866001600281101515610a3657fe5b602002015114155b15610a4c5760009450610a51565b600194505b5050505098975050505050505050565b6000610a6b6127bf565b600080610a766127e6565b610a7e6127e6565b610a866127e6565b7f79be667ef9dcbbac55a06295ce870b07029bfcdb2dce28d959f2815b16f81798866000600281101515610ab657fe5b6020020181815250507f483ada7726a3c4655da4fbfc0e1108a8fd17b448a68554199c47d08ffb10d4b8866001600281101515610aef57fe5b602002018181525050610b018a610d1c565b1580610b135750610b1188611e6b565b155b15610b215760009650610d0f565b6002337f79be667ef9dcbbac55a06295ce870b07029bfcdb2dce28d959f2815b16f817987f483ada7726a3c4655da4fbfc0e1108a8fd17b448a68554199c47d08ffb10d4b88d8c600060405160200152604051808673ffffffffffffffffffffffffffffffffffffffff1673ffffffffffffffffffffffffffffffffffffffff166c0100000000000000000000000002815260140185815260200184815260200183600260200280838360005b83811015610be9578082015181840152602081019050610bce565b5050505090500182600360200280838360005b83811015610c17578082015181840152602081019050610bfc565b505050509050019550505050505060206040518083038160008661646e5a03f11515610c4257600080fd5b505060405180519050945084600190049350610c5e8987610d2e565b9250610c6a848b610d2e565b9150610c76838361155d565b9050610ca2817ffffffffffffffffffffffffffffffffffffffffffffffffffffffffefffffc2f6119ab565b876000600381101515610cb157fe5b6020020151816000600381101515610cc557fe5b6020020151148015610cfc5750876001600381101515610ce157fe5b6020020151816001600381101515610cf557fe5b6020020151145b15610d0a5760019650610d0f565b600096505b5050505050509392505050565b6000610d2782611ede565b9050919050565b610d366127e6565b6000806000610d4361280e565b610d4b6127e6565b610d5361283d565b60008060007ffffffffffffffffffffffffffffffffffffffffffffffffffffffffefffffc2f985060008c1415610d895761154e565b6000604051985061020089016040525b8c15610dd25760018d1615610dc15760208d06905080888a015360206010821102818e03019c505b60028d049c50600188019750610d99565b508797506060604051908101604052808c6000600281101515610df157fe5b602002015181526020018c6001600281101515610e0a57fe5b602002015181526020016001815250866000600881101515610e2857fe5b6020020181905250610e4c866000600881101515610e4257fe5b6020020151612004565b9450610e58858c611a54565b866001600881101515610e6757fe5b6020020181905250610e8c85876001600881101515610e8257fe5b602002015161155d565b866002600881101515610e9b57fe5b6020020181905250610ec085876002600881101515610eb657fe5b602002015161155d565b866003600881101515610ecf57fe5b6020020181905250610ef485876003600881101515610eea57fe5b602002015161155d565b866004600881101515610f0357fe5b6020020181905250610f2885876004600881101515610f1e57fe5b602002015161155d565b866005600881101515610f3757fe5b6020020181905250610f5c85876005600881101515610f5257fe5b602002015161155d565b866006600881101515610f6b57fe5b6020020181905250610f9085876006600881101515610f8657fe5b602002015161155d565b866007600881101515610f9f57fe5b6020020181905250856001600881101515610fb657fe5b60200201516002600381101515610fc957fe5b6020020151846000601081101515610fdd57fe5b60200201818152505088846000601081101515610ff657fe5b602002015187600260088110151561100a57fe5b6020020151600260038110151561101d57fe5b60200201510984600160108110151561103257fe5b6020020181815250508884600160108110151561104b57fe5b602002015187600360088110151561105f57fe5b6020020151600260038110151561107257fe5b60200201510984600260108110151561108757fe5b602002018181525050888460026010811015156110a057fe5b60200201518760046008811015156110b457fe5b602002015160026003811015156110c757fe5b6020020151098460036010811015156110dc57fe5b602002018181525050888460036010811015156110f557fe5b602002015187600560088110151561110957fe5b6020020151600260038110151561111c57fe5b60200201510984600460108110151561113157fe5b6020020181815250508884600460108110151561114a57fe5b602002015187600660088110151561115e57fe5b6020020151600260038110151561117157fe5b60200201510984600560108110151561118657fe5b6020020181815250508884600560108110151561119f57fe5b60200201518760076008811015156111b357fe5b602002015160026003811015156111c657fe5b6020020151098460066010811015156111db57fe5b6020020181815250506112018460066010811015156111f657fe5b60200201518a612135565b84600760108110151561121057fe5b60200201818152505083600760108110151561122857fe5b602002015184600860108110151561123c57fe5b6020020181815250508884600860108110151561125557fe5b602002015185600560108110151561126957fe5b60200201510984600f60108110151561127e57fe5b602002018181525050600692505b60028310151561134157888460086010811015156112a657fe5b602002015187600186016008811015156112bc57fe5b602002015160026003811015156112cf57fe5b6020020151098460086010811015156112e457fe5b602002018181525050888460086010811015156112fd57fe5b6020020151856002860360108110151561131357fe5b602002015109848460080160108110151561132a57fe5b60200201818152505082806001900393505061128c565b8884600860108110151561135157fe5b602002015187600260088110151561136557fe5b6020020151600260038110151561137857fe5b60200201510984600960108110151561138d57fe5b602002018181525050600092505b60078310156114145761140786600185016008811015156113b857fe5b602002015185600986016010811015156113ce57fe5b60200201518b87600988016010811015156113e557fe5b602002015188600989016010811015156113fb57fe5b6020020151098c6121e1565b828060010193505061139b565b5b600087111561154d578680600190039750508688015160001a91506114398a612262565b60108211156114c357600282601f0381151561145157fe5b0490506114be8a6040805190810160405280898560088110151561147157fe5b6020020151600060038110151561148457fe5b60200201518152602001898560088110151561149c57fe5b602002015160016003811015156114af57fe5b60200201518d03815250612389565b611548565b6000821115611547576002600183038115156114db57fe5b0490506115468a604080519081016040528089856008811015156114fb57fe5b6020020151600060038110151561150e57fe5b60200201518152602001898560088110151561152657fe5b6020020151600160038110151561153957fe5b6020020151815250612389565b5b5b611415565b5b50505050505050505092915050565b6115656127e6565b600061156f612866565b611577612866565b6000806000806000808b600260038110151561158f57fe5b602002015114156115a25789985061199d565b60008a60026003811015156115b357fe5b602002015114156115c6578a985061199d565b7ffffffffffffffffffffffffffffffffffffffffffffffffffffffffefffffc2f9750878b60026003811015156115f957fe5b60200201518c600260038110151561160d57fe5b60200201510987600060048110151561162257fe5b6020020181815250508787600060048110151561163b57fe5b60200201518c600260038110151561164f57fe5b60200201510987600160048110151561166457fe5b602002018181525050878a600260038110151561167d57fe5b60200201518b600260038110151561169157fe5b6020020151098760026004811015156116a657fe5b602002018181525050878760026004811015156116bf57fe5b60200201518b60026003811015156116d357fe5b6020020151098760036004811015156116e857fe5b6020020181815250506080604051908101604052808989600260048110151561170d57fe5b60200201518e600060038110151561172157fe5b60200201510981526020018989600360048110151561173c57fe5b60200201518e600160038110151561175057fe5b60200201510981526020018989600060048110151561176b57fe5b60200201518d600060038110151561177f57fe5b60200201510981526020018989600160048110151561179a57fe5b60200201518d60016003811015156117ae57fe5b60200201510981525095508560026004811015156117c857fe5b60200201518660006004811015156117dc57fe5b6020020151141561182b578560036004811015156117f657fe5b602002015186600160048110151561180a57fe5b602002015114151561181b5761199d565b6118248b612004565b985061199d565b8786600060048110151561183b57fe5b6020020151890387600260048110151561185157fe5b60200201510894508786600160048110151561186957fe5b6020020151890387600360048110151561187f57fe5b60200201510893508785860992508785840991508782890389868709089050878889858960006004811015156118b157fe5b602002015109600209890382089050808960006003811015156118d057fe5b6020020181815250508788828a038a868a60006004811015156118ef57fe5b60200201510908850989600160038110151561190757fe5b60200201818152505087888388600160048110151561192257fe5b60200201510989038a600160038110151561193957fe5b60200201510889600160038110151561194e57fe5b60200201818152505087888b600260038110151561196857fe5b60200201518d600260038110151561197c57fe5b602002015109860989600260038110151561199357fe5b6020020181815250505b505050505050505092915050565b6000806119cb8460026003811015156119c057fe5b602002015184612135565b915082828309905082818560006003811015156119e457fe5b6020020151098460006003811015156119f957fe5b6020020181815250508283828409856001600381101515611a1657fe5b602002015109846001600381101515611a2b57fe5b6020020181815250506001846002600381101515611a4557fe5b60200201818152505050505050565b611a5c6127e6565b6000611a666127bf565b611a6e612866565b6000806000806000808b6002600381101515611a8657fe5b60200201511415611adb576060604051908101604052808b6000600281101515611aac57fe5b602002015181526020018b6001600281101515611ac557fe5b6020020151815260200160018152509850611e5d565b60008a6001600281101515611aec57fe5b60200201511415611aff578a9850611e5d565b7ffffffffffffffffffffffffffffffffffffffffffffffffffffffffefffffc2f9750878b6002600381101515611b3257fe5b60200201518c6002600381101515611b4657fe5b602002015109876000600281101515611b5b57fe5b60200201818152505087876000600281101515611b7457fe5b60200201518c6002600381101515611b8857fe5b602002015109876001600281101515611b9d57fe5b6020020181815250506080604051908101604052808c6000600381101515611bc157fe5b602002015181526020018c6001600381101515611bda57fe5b6020020151815260200189896000600281101515611bf457fe5b60200201518d6000600281101515611c0857fe5b602002015109815260200189896001600281101515611c2357fe5b60200201518d6001600281101515611c3757fe5b6020020151098152509550856002600481101515611c5157fe5b6020020151866000600481101515611c6557fe5b60200201511415611d0157856003600481101515611c7f57fe5b6020020151866001600481101515611c9357fe5b6020020151141515611cf25760008b6000600381101515611cb057fe5b60200201818152505060008b6001600381101515611cca57fe5b60200201818152505060008b6002600381101515611ce457fe5b602002018181525050611e5d565b611cfb8b612004565b50611e5d565b87866000600481101515611d1157fe5b60200201518903876002600481101515611d2757fe5b602002015108945087866001600481101515611d3f57fe5b60200201518903876003600481101515611d5557fe5b6020020151089350878586099250878584099150878289038986870908905087888985896000600481101515611d8757fe5b60200201510960020989038208905080896000600381101515611da657fe5b6020020181815250508788828a038a868a6000600481101515611dc557fe5b602002015109088509896001600381101515611ddd57fe5b602002018181525050878883886001600481101515611df857fe5b60200201510989038a6001600381101515611e0f57fe5b602002015108896001600381101515611e2457fe5b602002018181525050878b6002600381101515611e3d57fe5b60200201518609896002600381101515611e5357fe5b6020020181815250505b505050505050505092915050565b6000611e756127bf565b826000600381101515611e8457fe5b6020020151816000600281101515611e9857fe5b602002018181525050826001600381101515611eb057fe5b6020020151816001600281101515611ec457fe5b602002018181525050611ed681611ede565b915050919050565b6000806000807ffffffffffffffffffffffffffffffffffffffffffffffffffffffffefffffc2f9250846000600281101515611f1657fe5b602002015160001480611f3b575082856000600281101515611f3457fe5b6020020151145b80611f595750846001600281101515611f5057fe5b60200201516000145b80611f76575082856001600281101515611f6f57fe5b6020020151145b15611f845760009350611ffc565b82856001600281101515611f9457fe5b6020020151866001600281101515611fa857fe5b602002015109915082600784876000600281101515611fc357fe5b602002015186896000600281101515611fd857fe5b60200201518a6000600281101515611fec57fe5b6020020151090908905080821493505b505050919050565b61200c6127e6565b60008060008060008060007ffffffffffffffffffffffffffffffffffffffffffffffffffffffffefffffc2f9650600089600260038110151561204b57fe5b6020020151141561205b57612129565b88600060038110151561206a57fe5b6020020151955088600160038110151561208057fe5b6020020151945086858609935086878588096004099250868787880960030991508687848508880388848509089050808860006003811015156120bf57fe5b60200201818152505086878886870960080988038889848b0387088509088860016003811015156120ec57fe5b60200201818152505086878a600260038110151561210657fe5b6020020151870960020988600260038110151561211f57fe5b6020020181815250505b50505050505050919050565b600080600080600080600088148061214c57508688145b806121575750600087145b1561216157600080fd5b8688111561217857868881151561217457fe5b0697505b600193508692508791505b6000821415156121bc57818381151561219857fe5b04905083848202860383848402860380955081965082975083985050505050612183565b60008512156121d25784600003870395506121d6565b8495505b505050505092915050565b80828560006003811015156121f257fe5b60200201510984600060038110151561220757fe5b602002018181525050808183850985600160038110151561222457fe5b60200201510984600160038110151561223957fe5b602002018181525050600184600260038110151561225357fe5b60200201818152505050505050565b60008060008060008060007ffffffffffffffffffffffffffffffffffffffffffffffffffffffffefffffc2f965060008860026003811015156122a157fe5b602002015114156122b15761237f565b8760006003811015156122c057fe5b602002015195508760016003811015156122d657fe5b60200201519450868586099350868785880960040992508687878809600309915086878485088803888485090890508088600060038110151561231557fe5b60200201818152505086878886870960080988038889848b03870885090888600160038110151561234257fe5b602002018181525050868789600260038110151561235c57fe5b6020020151870960020988600260038110151561237557fe5b6020020181815250505b5050505050505050565b60006123936127bf565b61239b612866565b6000806000806000808a60016003811015156123b357fe5b60200201511415612435578860006002811015156123cd57fe5b60200201518a60006003811015156123e157fe5b6020020181815250508860016002811015156123f957fe5b60200201518a600160038110151561240d57fe5b60200201818152505060018a600260038110151561242757fe5b6020020181815250506127b3565b600089600160028110151561244657fe5b60200201511415612456576127b3565b7ffffffffffffffffffffffffffffffffffffffffffffffffffffffffefffffc2f9750878a600260038110151561248957fe5b60200201518b600260038110151561249d57fe5b6020020151098760006002811015156124b257fe5b602002018181525050878760006002811015156124cb57fe5b60200201518b60026003811015156124df57fe5b6020020151098760016002811015156124f457fe5b6020020181815250506080604051908101604052808b600060038110151561251857fe5b602002015181526020018b600160038110151561253157fe5b602002015181526020018989600060028110151561254b57fe5b60200201518c600060028110151561255f57fe5b60200201510981526020018989600160028110151561257a57fe5b60200201518c600160028110151561258e57fe5b60200201510981525095508560026004811015156125a857fe5b60200201518660006004811015156125bc57fe5b60200201511415612657578560036004811015156125d657fe5b60200201518660016004811015156125ea57fe5b60200201511415156126495760008a600060038110151561260757fe5b60200201818152505060008a600160038110151561262157fe5b60200201818152505060008a600260038110151561263b57fe5b6020020181815250506127b3565b6126528a612262565b6127b3565b8786600060048110151561266757fe5b6020020151890387600260048110151561267d57fe5b60200201510894508786600160048110151561269557fe5b602002015189038760036004811015156126ab57fe5b60200201510893508785860992508785840991508782890389868709089050878889858960006004811015156126dd57fe5b602002015109600209890382089050808a60006003811015156126fc57fe5b6020020181815250508788828a038a868a600060048110151561271b57fe5b6020020151090885098a600160038110151561273357fe5b60200201818152505087888388600160048110151561274e57fe5b60200201510989038b600160038110151561276557fe5b6020020151088a600160038110151561277a57fe5b602002018181525050878a600260038110151561279357fe5b602002015186098a60026003811015156127a957fe5b6020020181815250505b50505050505050505050565b60408051908101604052806002905b60008152602001906001900390816127ce5790505090565b6060604051908101604052806003905b60008152602001906001900390816127f65790505090565b610300604051908101604052806008905b61282761288e565b81526020019060019003908161281f5790505090565b610200604051908101604052806010905b600081526020019060019003908161284e5790505090565b6080604051908101604052806004905b60008152602001906001900390816128765790505090565b6060604051908101604052806003905b600081526020019060019003908161289e57905050905600a165627a7a72305820832ebc7822f7168cb07c51960ead31ec0eae6846ff50d8117d6f9e25dbb98e170029",
  "source": "pragma solidity ^0.4.18;\r\n\r\nimport \"./Secp256k1.sol\";\r\n\r\nlibrary Utils {\r\n    uint constant pp = 0xFFFFFFFFFFFFFFFFFFFFFFFFFFFFFFFFFFFFFFFFFFFFFFFFFFFFFFFEFFFFFC2F;\r\n\r\n    // Base point (generator) G\r\n    uint constant Gx = 0x79BE667EF9DCBBAC55A06295CE870B07029BFCDB2DCE28D959F2815B16F81798;\r\n    uint constant Gy = 0x483ADA7726A3C4655DA4FBFC0E1108A8FD17B448A68554199C47D08FFB10D4B8;\r\n\r\n    // Order of G\r\n    uint constant nn = 0xFFFFFFFFFFFFFFFFFFFFFFFFFFFFFFFEBAAEDCE6AF48A03BBFD25E8CD0364141;\r\n    // Parameters xG, r where r = v - xc, and vG.\r\n    // Verify that vG = rG + xcG!\r\n    function verifyZKP(uint[2] xG, uint r, uint[3] vG) returns (bool){\r\n      uint[2] memory G;\r\n      G[0] = Gx;\r\n      G[1] = Gy;\r\n\r\n      // Check both keys are on the curve.\r\n      if(!Secp256k1.isPubKey(xG) || !Secp256k1.isPubKey(vG)) {\r\n        return false; //Must be on the curve!\r\n      }\r\n\r\n      // Get c = H(g, g^{x}, g^{v});\r\n      bytes32 b_c = sha256(msg.sender, Gx, Gy, xG, vG);\r\n      uint c = uint(b_c);\r\n\r\n      // Get g^{r}, and g^{xc}\r\n      uint[3] memory rG = Secp256k1._mul(r, G);\r\n      uint[3] memory xcG = Secp256k1._mul(c, xG);\r\n\r\n      // Add both points together\r\n      uint[3] memory rGxcG = Secp256k1._add(rG,xcG);\r\n\r\n      // Convert to Affine Co-ordinates\r\n      ECCMath.toZ1(rGxcG, pp);\r\n\r\n      // Verify. Do they match?\r\n      if(rGxcG[0] == vG[0] && rGxcG[1] == vG[1]) {\r\n         return true;\r\n      } else {\r\n         return false;\r\n      }\r\n    }\r\n\r\n  // We verify that the ZKP is of 0 or 1.\r\n  function verify1outof2ZKP(uint[4] params, uint[2] xG, uint[2] yG, uint[2] y, uint[2] a1, uint[2] b1, uint[2] a2, uint[2] b2) returns (bool) {\r\n      uint[2] memory G;\r\n      G[0] = Gx;\r\n      G[1] = Gy;\r\n      uint[2] memory temp1;\r\n      uint[3] memory temp2;\r\n      uint[3] memory temp3;\r\n\r\n      // Make sure we are only dealing with valid public keys!\r\n      if(!Secp256k1.isPubKey(xG) || !Secp256k1.isPubKey(yG) || !Secp256k1.isPubKey(y) || !Secp256k1.isPubKey(a1) ||\r\n         !Secp256k1.isPubKey(b1) || !Secp256k1.isPubKey(a2) || !Secp256k1.isPubKey(b2)) {\r\n         return false;\r\n      }\r\n\r\n      // Does c =? d1 + d2 (mod n)\r\n      if(uint(sha256(msg.sender, xG, y, a1, b1, a2, b2)) != addmod(params[0],params[1],nn)) {\r\n        return false;\r\n      }\r\n\r\n      // a1 =? g^{r1} * x^{d1}\r\n      temp2 = Secp256k1._mul(params[2], G);\r\n      temp3 = Secp256k1._add(temp2, Secp256k1._mul(params[0], xG));\r\n      ECCMath.toZ1(temp3, pp);\r\n\r\n      if(a1[0] != temp3[0] || a1[1] != temp3[1]) {\r\n        return false;\r\n      }\r\n\r\n      //b1 =? h^{r1} * y^{d1} (temp = affine 'y')\r\n      temp2 = Secp256k1._mul(params[2],yG);\r\n      temp3 = Secp256k1._add(temp2, Secp256k1._mul(params[0], y));\r\n      ECCMath.toZ1(temp3, pp);\r\n\r\n      if(b1[0] != temp3[0] || b1[1] != temp3[1]) {\r\n        return false;\r\n      }\r\n\r\n      //a2 =? g^{r2} * x^{d2}\r\n      temp2 = Secp256k1._mul(params[3],G);\r\n      temp3 = Secp256k1._add(temp2, Secp256k1._mul(params[1], xG));\r\n      ECCMath.toZ1(temp3, pp);\r\n\r\n      if(a2[0] != temp3[0] || a2[1] != temp3[1]) {\r\n        return false;\r\n      }\r\n\r\n      // Negate the 'y' co-ordinate of g\r\n      temp1[0] = G[0];\r\n      temp1[1] = pp - G[1];\r\n\r\n      // get 'y'\r\n      temp3[0] = y[0];\r\n      temp3[1] = y[1];\r\n      temp3[2] = 1;\r\n\r\n      // y-g\r\n      temp2 = Secp256k1._addMixed(temp3,temp1);\r\n\r\n      // Return to affine co-ordinates\r\n      ECCMath.toZ1(temp2, pp);\r\n      temp1[0] = temp2[0];\r\n      temp1[1] = temp2[1];\r\n\r\n      // (y-g)^{d2}\r\n      temp2 = Secp256k1._mul(params[1],temp1);\r\n\r\n      // Now... it is h^{r2} + temp2..\r\n      temp3 = Secp256k1._add(Secp256k1._mul(params[3],yG),temp2);\r\n\r\n      // Convert to Affine Co-ordinates\r\n      ECCMath.toZ1(temp3, pp);\r\n\r\n      // Should all match up.\r\n      if(b2[0] != temp3[0] || b2[1] != temp3[1]) {\r\n        return false;\r\n      }\r\n\r\n      return true;\r\n    }\r\n}\r\n",
  "sourcePath": "E:\\Programming\\ovn\\vote-selling\\contracts\\Utils.sol",
  "compiler": {
    "name": "solc",
    "version": "0.4.19+commit.c4cbbb05.Emscripten.clang"
  },
  "schemaVersion": "1.0.1",
  "updatedAt": "2018-03-11T05:37:51.661Z"
}